:020000040800F2
:100000001007002089010008B91200086B0B0008D6
:10001000AD110008A1050008851E000800000000C1
:10002000000000000000000000000000F9180008B7
:10003000A10700080000000079170008611B0008F4
:10004000A3010008A3010008A3010008A301000800
:10005000A3010008A3010008A3010008A3010008F0
:10006000A3010008A3010008A3010008A3010008E0
:10007000A3010008A3010008A3010008A3010008D0
:10008000A3010008A3010008A3010008A3010008C0
:10009000A3010008A3010008A301000891080008BB
:1000A000A3010008A3010008A3010008A3010008A0
:1000B000A3010008C51B0008A3010008A301000854
:1000C000A3010008A3010008A3010008A301000880
:1000D000A3010008691D0008A3010008A30100088E
:1000E000E9070008A3010008A301000800F002F8D6
:1000F00000F03AF80AA090E8000C82448344AAF188
:100100000107DA4501D100F02FF8AFF2090EBAE885
:100110000F0013F0010F18BFFB1A43F0010318473B
:10012000202F0000402F0000103A24BF78C878C16B
:10013000FAD8520724BF30C830C144BF04680C60ED
:10014000704700000023002400250026103A28BF35
:1001500078C1FBD8520728BF30C148BF0B60704739
:100160001FB51FBD10B510BD00F0C3F91146FFF754
:10017000F7FF01F089FE00F0E1F903B4FFF7F2FFA9
:1001800003BC00F0E9F9000009488047094800472E
:10019000FEE7FEE7FEE7FEE7FEE7FEE7FEE7FEE737
:1001A000FEE7FEE704480549054A064B7047000094
:1001B000651B0008ED00000810010020100700205A
:1001C000100300201003002010B5203AC0F00B806F
:1001D000B1E81850203AA0E81850B1E81850A0E84B
:1001E0001850BFF4F5AF5FEA027C24BFB1E81850A5
:1001F000A0E8185044BF18C918C0BDE810405FEA15
:10020000827C24BF51F8043B40F8043B08BF704790
:10021000D20728BF31F8023B48BF11F8012B28BF95
:1002200020F8023B48BF00F8012B7047014900F05D
:10023000DDB800008400002010B503681C1404EB36
:1002400021449BB289B2194494FBF2F302FB13439D
:1002500094FBF2F401EB034393FBF2F102FB113147
:1002600093FBF2F301E05B1E11440029FBDB01600C
:1002700003EB044010BDF0B504464FF0FF3585B0E8
:100280000068049060680290A0680390E0680190A4
:1002900020690090666906F18040B0F1004F7CD87B
:1002A0003C22002104A8FFF7C7FF3C22014602A818
:1002B000FFF7C2FF1822014603A8FFF7BDFF411E4A
:1002C00040F2B55201A8FFF7B7FF0C220746684677
:1002D0000021FFF7B1FF414B00EB870030440026BF
:1002E0007B4411E0511A01910099491C02290091A7
:1002F00002D00C2908D105E0810705D00199491CDD
:10030000019101E0401C00960099019A595C9142CC
:10031000E8DD0099012906D11C2A04D1810702D009
:100320000221CDE90016A0F146018B293CD2DDE97E
:100330000061002202E09F5C521C3944B242FADBA9
:10034000012E02DD820700D0491E40F2B55340F273
:100350006D16C21700EB927292105A4300F003031D
:1003600003FB062283070A4400D1521E039E02EBC0
:100370004203049F06EBC303029EC3EB031306EB89
:100380008303174E33441E149BB2C6EB0616C3EB11
:100390000313B60007EB830300E005E006EB13460A
:1003A00066F31F43360C02D0284605B0F0BD80C46A
:1003B000029E40C4039E40C4019E761C44F80C6B10
:1003C000009E44E902600720521C92FBF0F600FBFD
:1003D000162084E823001846E7E70000502D0000AF
:1003E000A039CEFD704770477047000070B50C46CD
:1003F000016800204A1C3ED03C22B1FBF2F302FB14
:100400001313B1FBF2F12360B1FBF2F302FB131300
:10041000B1FBF2F118226360B1FBF2F302FB13139C
:10042000B1FBF2F146F2E0320A440721A360B2FBCD
:10043000F1F301FB132140F2B553B2FBF3F5A161D7
:10044000B2FBF3F103FB15228900B2F5B77F08D3A5
:100450009B10521EB2FBF3F52944B2FBF3F503FBEC
:1004600015220F4BE261616189077B440CD03B2A66
:100470000AD3521C08E02C21204600F013F801207A
:10048000E0600AE0521A401C195C9142FAD9521CF1
:10049000C4E903204FF0FF302062204670BD000009
:1004A000C62B00004FF0000200B513469446964656
:1004B000203922BFA0E80C50A0E80C50B1F1200177
:1004C000BFF4F7AF090728BFA0E80C5048BF0CC025
:1004D0005DF804EB890028BF40F8042B08BF704783
:1004E00048BF20F8022B11F0804F18BF00F8012BF5
:1004F0007047754600F02CF8AE4605006946534635
:1005000020F00700854618B020B5FFF74BFEBDE888
:1005100020404FF000064FF000074FF000084FF06A
:10052000000B21F00701AC46ACE8C009ACE8C009FB
:10053000ACE8C009ACE8C0098D46704710B5044668
:10054000AFF300802046BDE81040FFF716BE000064
:1005500000487047B000002001491820ABBEFEE7FC
:10056000260002007047000008B5014600200090F8
:10057000034800900098084400900098008808BD47
:10058000006C004008B500220092044A0092009AD4
:1005900002440092009A116008BD0000006C004007
:1005A00000BFFEE708B50121082001F0F7F8102090
:1005B0008DF803000120ADF8000003208DF8020043
:1005C0006946024800F034FA08BD0000000C014002
:1005D00008B548208DF803000120ADF800006946F9
:1005E000014800F025FA08BD000C014008B51020B4
:1005F0008DF803000120ADF8000003208DF8020003
:100600006946024800F014FA08BD0000000C0140E1
:1006100070B5002400251EE06410FFF7E7FF0121FC
:100620000F4800F099FA022000F0C7F801210C48A9
:1006300000F094FA022000F0C0F8FFF7C9FF012192
:10064000074800F080FA08B144F080043C2000F034
:10065000B4F8681CC5B2082DDEDB204670BD000072
:10066000000C01402DE9F84F00200090824600F078
:100670003FF8CC2000F06CF8442000F069F840F21C
:10068000EE2000F08EF800F033F8CC2000F060F897
:10069000BE2000F05DF8FFF7BBFF8346FFF7B8FF11
:1006A00081464C464FF6FF7000EA042444EA0B04EE
:1006B00004F47840B0F5784F04D1E043401C84B294
:1006C00001200090204601F01EFC07460022074B47
:1006D00001F02CFC054601F0E5FB8246009808B1CC
:1006E0008AF0004A5046BDE8F88F00000000B03F95
:1006F00010B50124FFF77AFF0121144800F02EFA0B
:10070000052000F05AF80121104800F025FA4FF4B6
:10071000F07000F052F801210C4800F01FFA3C2064
:1007200000F04BF8FFF754FF0121084800F00BFAE6
:1007300004464FF4F07000F040F8FFF757FF012136
:10074000024800F00BFA204610BD0000000C0140EA
:1007500070B5044600251EE0FFF748FF01210F4851
:1007600000F0FAF9022000F028F804F0010020B1AE
:1007700001210A4800F0F2F903E00121074800F0E6
:10078000EBF93C2000F019F80121044800F0E6F9EB
:100790006410681CC5B2082DDEDB70BD000C014082
:1007A000704700B5034603E04FF47A7000F005F897
:1007B000181EA3F10103F7D100BD00EBC001C90071
:1007C0004FF0E0225161002191610521116100BFCC
:1007D0004FF0E021096901F480310029F8D00421AB
:1007E0004FF0E0221161704710B54FF4806000F0C7
:1007F000A1F8012813D18102234800F0A4F950B9CF
:1008000000BF4FF48061204800F09DF90028F8D027
:1008100008201E4908704FF4806000F085F84FF4FE
:10082000006000F087F8012813D1C102164800F0DB
:100830008AF950B900BF4FF40061134800F083F902
:100840000028F8D00220114908704FF4006000F031
:100850006BF84FF4805000F06DF8012813D10103BC
:10086000094800F070F950B900BF4FF480510648B4
:1008700000F069F90028F8D00120044908704FF40D
:10088000805000F051F810BD000C01400000002025
:1008900010B5202000F04EF8012811D12021204869
:1008A00000F051F948B900BF20211D4800F04BF974
:1008B0000028F9D005201B490870202000F034F8EA
:1008C000402000F037F8012811D14021144800F0F1
:1008D0003AF948B900BF4021114800F034F9002826
:1008E000F9D004200F490870402000F01DF8802046
:1008F00000F020F8012811D18021094800F023F9E7
:1009000048B900BF8021064800F01DF90028F9D041
:10091000062004490870802000F006F810BD000091
:10092000000C0140000000200149086070470000F1
:1009300014040140014600200022074B1B6803EA13
:100940000102054B14331B680B4013B10AB101209F
:1009500000E000207047000000040140002123490E
:100960008279002A3AD00A46126803689A430B46F5
:100970001A600A1D126803689A430B1D1A600279F7
:1009800011440A6803681A430A60184A0832126858
:1009900003689A43154B08331A601A1D12680368DE
:1009A0009A43124B0C331A604279102A0ED11A1F47
:1009B000126803681A430D4B08331A601A1D126837
:1009C00003681A43094B0C331A600DE0074942795A
:1009D00011440A6803681A430A6005E00279114469
:1009E0000A6803689A430A607047000000040140E7
:1009F00030B500228B071C0F0F2303FA04F20B4BB8
:100A00008C1053F824309343084C8D1044F8253053
:100A100023468C1053F824308C07240F00FA04F47A
:100A20002343024C8D1044F8253030BD08000140AE
:100A30002DE9F04102460025002600200023002475
:100A4000002791F803C00CF00F0591F803C00CF0DB
:100A5000100CBCF1000F03D091F802C04CEA050560
:100A600091F800C0BCF1000F31D0146800202BE0D9
:100A70004FF0010C0CFA00F3B1F800C00CEA0306C9
:100A80009E4220D183004FF00F0C0CFA03F7BC43B9
:100A900005FA03FC4CEA040491F803C0BCF1280FEA
:100AA00006D14FF0010C0CFA00FCC2F814C00AE0A9
:100AB00091F803C0BCF1480F05D14FF0010C0CFABE
:100AC00000FCC2F810C0401C0828D1D31460B1F853
:100AD00000C0BCF1FF0F34DD546800202EE000F1AF
:100AE000080C4FF0010808FA0CF3B1F800C00CEA4A
:100AF00003069E4221D183004FF00F0C0CFA03F73E
:100B0000BC4305FA03FC4CEA040491F803C0BCF1B1
:100B1000280F05D100F1080C08FA0CF8C2F814806F
:100B200091F803C0BCF1480F07D100F1080C4FF059
:100B3000010808FA0CF8C2F81080401C0828CED32F
:100B40005460BDE8F0810246002093680B400BB171
:100B5000012000E00020704741617047016170474B
:100B60000AB1016100E04161704700BFFEE700008B
:100B700070B50546002415E08020204100EA0502FA
:100B80004FF400710E48FFF7EBFF012211020C48F1
:100B9000FFF7E6FF00224FF480710948FFF7E0FFFE
:100BA000601CC4B2082CE7DB012211020448FFF7E5
:100BB000D7FF00224FF480710148FFF7D1FF70BDCD
:100BC000000C014010B5C248007809287ED2DFE849
:100BD00000F07DF5F67D3B056A7D990000F0B0FBE5
:100BE000BC480078B8B900F023FBBB490860BB489B
:100BF0000078BB4908700120BA4908707820BA49CA
:100C00000870B7480178B448006800F077FE01200A
:100C1000B049087014E0B048006800F02FFBB048FD
:100C20000078AE490870B1480378B1480278B148FD
:100C30000178AA48007800F0BFF90020A5490870A3
:100C40000020A349087040E100F07AFBA548007835
:100C5000012806D10320A34908706120A249087029
:100C60001DE0A0480078032803D09E48007807289C
:100C70000BD19D48007818389B49087008460078C9
:100C800031280CDC3120087009E0964800780528EE
:100C900005D10720934908705F2093490870002010
:100CA0008B49087011E100F04BFB8E480078032857
:100CB00011D18D48007818308B49087008460078AB
:100CC00061281BDD01208749087000E0E8E07820FA
:100CD0008549087012E08348007807280ED18248C1
:100CE000007818308049087008460078612805DDD2
:100CF00005207C49087078207B49087000207449E1
:100D00000870E2E000F01CFB77480078782803D1F7
:100D10000120744908704CE07248007803283FD1E4
:100D200071480078612810D16B48006840893B28E1
:100D300007DA694800684089401C674909684881AA
:100D400003E0002064490968488167480078492821
:100D500010D16148006800893B2807DA5E480068C6
:100D60000089401C5C490968088103E000205A4959
:100D7000096808815C48007831281AD15648006813
:100D8000C088172807DA54480068C088401C5249B8
:100D90000968C8800DE000204F490968C88008E054
:100DA00050480078072804D14D480078401C4C4931
:100DB000087000204649087087E000E05EE000F01F
:100DC000BFFA49480078782803D1052045490870C2
:100DD00050E04448007803283FD143480078612818
:100DE00010D13D4800684089002807DD3A48006876
:100DF0004089401E38490968488103E03B20364954
:100E00000968488138480078492810D1324800687C
:100E10000089002807DD304800680089401E2E49FF
:100E20000968088103E03B202B49096808812E48A6
:100E3000007831281ED128480068C088002807DDC6
:100E400025480068C088401E23490968C88011E011
:100E5000172021490968C8800CE02248007807283B
:100E600008D11F480078002804DD1D480078401E86
:100E70001B49087000201649087026E000F060FA4F
:100E80001A4803781A4802781A48017813480078FB
:100E900000F092F800200F4908700D49087014E026
:100EA0000C48007850B9114803781148027811486D
:100EB00001780A48007800F07FF805E008480178DA
:100EC0000548006800F01AFD00BF00BF10BD00001B
:100ED00000000020040000200C000020050000207D
:100EE00010000020090000200A0000200800002057
:100EF00007000020060000201FB50121082000F097
:100F00004DFC0121084600F049FC48208DF80F00F7
:100F10004FF4E750ADF80C0003208DF80E0003A944
:100F20002448FFF785FD05210120FFF761FD06211B
:100F30000120FFF75DFD07210120FFF759FD0A2180
:100F40000120FFF755FD0B210120FFF751FD0C217A
:100F50000120FFF74DFD4FF4E750019001208DF87F
:100F60000A0000208DF808000C208DF8090001A867
:100F7000FFF7F4FC4FF4A06000F0D8F917208DF8CB
:100F8000000001208DF803008DF801008DF80200AB
:100F9000684600F093F928208DF8000001208DF8B4
:100FA00003008DF8010002208DF80200684600F071
:100FB00085F91FBD000C01402DE9FF5F05460E4677
:100FC000174698464FF0010A4FF003094FF0050B02
:100FD0000720039000F02CF9044608220121504616
:100FE00000F036FA0B221121504600F031FA0823A6
:100FF0003A222121504600F05BFA08200090E28856
:1010000002232921504600F051FB08233A223921BE
:10101000504600F04DFA0820009022890223412119
:10102000504600F043FB08233A225121504600F07D
:101030003FFA08200090628902235921504600F0AF
:1010400035FB0B220121484600F002FA0C22112147
:10105000484600F0FDF909F10100062350A22121C4
:1010600000F04BFB08233A223F21484600F020FACB
:10107000082004232A4647210090484600F016FB2A
:10108000CEB10A220121039800F0E2F90F221121CA
:10109000039800F0DDF910222121039800F0D8F91F
:1010A00011223121039800F0D3F908232122412194
:1010B000039800F0FDF92FB10D227021072000F0F8
:1010C000C7F904E00E227021072000F0C1F9B8F141
:1010D000000F62D1FFF70CFB00283BD1FFF7C2FAEB
:1010E000029000220121584600F0B2F9012211219C
:1010F000584600F0ADF902222121584600F0A8F927
:1011000008233A223121584600F0D2F9082326A2BA
:101110006121584600F0F1FA0021029801F0A6F989
:101120000AD8082001210323CDE9001039215846AF
:10113000029A00F00DFA09E0082001210223CDE90E
:10114000001039215846029A00F002FA0520FFF7F4
:1011500028FB22E000220121584600F079F9012203
:101160001121584600F074F903222121584600F05D
:101170006FF904223121584600F06AF90522412115
:10118000584600F065F906225121584600F060F9F2
:1011900007226121584600F05BF9BDE8FF9F00007F
:1011A000286D696E290000002020000000BFFEE7C6
:1011B0000EB50121080700F0E1FA0121C80600F090
:1011C000DDFA012000F0D2FA0420FFF7CDF94FF646
:1011D000FE61884225D0154A07CA8DE80700012024
:1011E00000F00AFB00BF412000F0E8FA0128FAD124
:1011F000000200F021FB012000F018FB00F06AFB68
:1012000000F05EFB47F6FF7000F04AFB00F058FB71
:10121000684600F033F84FF6FE610420FFF7B2F99C
:1012200003E000F057FB00F04BFB0EBDD02500089B
:1012300010B58CB000F01CFB00F5E1400B900BA842
:10124000FEF7F4FF04462C2221466846FEF7BCFF59
:10125000059800F26C70084908800498401C48808A
:10126000039888800298C880019808810098488176
:1012700008460CB010BD00001400002030B58BB043
:1012800004462088A0F26C7005906088401E04908F
:10129000A0880390E08802902089019060890090E6
:1012A0006846FEF7E8FFA0F5E145284600F0EAFAB7
:1012B00000F006FB0BB030BD7047000070B5002198
:1012C00000230F22C47804B3154C246804F4E064AE
:1012D000C4F5E064210AC1F10403CA40447804FA69
:1012E00003F184781440214309010E4C0678A1557E
:1012F000047804F01F050124AC4005786D11AD00A1
:1013000005F1E025C5F8004109E0047804F01F0567
:101310000124AC40044D0678761145F8264070BD96
:101320000CED00E000E400E080E100E00249014350
:10133000024A1160704700000000FA050CED00E061
:1013400070B500240EE00021204600F06FF8002563
:1013500004E0002000F0F9F9681CC5B2802DF8DB2C
:10136000601CC4B2082CEEDB70BD70B5002406E032
:10137000002500E06D1CB5F57A7FFBD3641CB4F545
:101380007A7FF5D300F096FBAE2000F0CEF9D520A1
:1013900000F0CBF9802000F0C8F9A82000F0C5F9D2
:1013A0003F2000F0C2F9D32000F0BFF9002000F088
:1013B000BCF9402000F0B9F9A12000F0B6F9C8202E
:1013C00000F0B3F9DA2000F0B0F9122000F0ADF926
:1013D000812000F0AAF9CF2000F0A7F9D92000F071
:1013E000A4F9F12000F0A1F9DB2000F09EF93020F3
:1013F00000F09BF9A42000F098F9A62000F095F9E0
:101400008D2000F092F9142000F08FF9AF2000F049
:101410008CF9FFF795FF70BD10B50246012000E082
:1014200050430B1EA1F10101FAD110BD70B5054664
:101430000C4645F0B00000F078F9102141EA141094
:1014400000F073F904F00F0000F06FF970BD0000B8
:101450002DE9F04105460E4617464FF01008721E62
:10146000D1B26A1ED0B2FFF7E1FF002407E00F49B6
:1014700001EB4711085D00F068F9601CC4B24445F7
:10148000F5DB721ED1B2E8B2FFF7D0FF002409E00D
:10149000064901EB471104EB0802885C00F055F99E
:1014A000601CC4B24445F3DBBDE8F081F42D0008B4
:1014B0002DE9F04105460E4617469846B8F1080F4B
:1014C00029D1721ED1B26A1ED0B2FFF7AFFF00243D
:1014D00009E0A7F120011C4A02EB0111085D00F0B0
:1014E00034F9601CC4B2082CF3DB721ED1B2E8B22E
:1014F000FFF79CFF00240BE0A7F12001124A02EB4A
:10150000011204F10801505C00F01FF9601CC4B224
:10151000082CF1DB15E0721ED1B26A1ED0B2FFF7C3
:1015200085FF00240BE0A7F1200101EB4101074AF0
:1015300002EB4101085D00F008F9601CC4B2062C02
:10154000F1DBBDE8F081000004280008DC2500087C
:101550002DE9FF4F85B00E4691461F46DDE912A4E6
:101560000021484600F082FE53D289F0004923460C
:101570002D2231460598FFF79BFF484600F042FEBA
:1015800083463019C1B23B465A460094059800F094
:101590008DF8BAF1000F08DD781C04FB0060C1B2C1
:1015A000234641A2059800F0A8F802254FF00A084A
:1015B0002AE0404600F046FE0290484600F022FE37
:1015C000009000F03FFE4946019000F080FF834606
:1015D000029900F07FFE039000F014FE0A21B0FB98
:1015E000F1F201FB120000940490781904FB0060F2
:1015F000C1B20123DDE9042000F058F8681CC5B22F
:1016000008EB88004FEA40080AF101008542D0DD6E
:1016100046E0484600F0F6FD83463B465A463146D2
:101620000094059800F042F8BAF1000F07DD07FBBF
:101630000460C1B223461CA2059800F05EF80125A3
:101640004FF00A082AE0404600F0FCFD02904846B0
:1016500000F0D8FD009000F0F5FD8346494600F00B
:1016600036FF0190029900F035FE039000F0CAFDAC
:101670000A21B0FBF1F201FB1200009404907819EA
:1016800004FB0060C1B20123DDE9042000F00EF884
:10169000681CC5B208EB88004FEA40085545D2DD0A
:1016A00009B0BDE8F08F00002E0000002DE9F047E2
:1016B00081460E4617461D46DDF82080002418E0BE
:1016C000281B411E0A20FFF7A7FEB7FBF0F00A21F6
:1016D000B0FBF1F201FB120030304FFA80FA08FB48
:1016E0000460C1B2434652464846FFF7E1FE601C23
:1016F000C4B2AC42E4DBBDE8F0872DE9F04180469E
:101700000E4615461F4600240AE0285D42B207FB3C
:101710000460C1B23B464046FFF7CAFE601CC4B23B
:10172000285D0028F1D1BDE8F08110B5044600F035
:10173000E9F97820FFF71CFA0020FFF719FA204694
:10174000FFF716FA00F0F8F910BD10B5044600F0E6
:10175000D9F97820FFF70CFA4020FFF709FA204664
:10176000FFF706FA00F0E8F910BD00000149086231
:101770007047000000000E427047000029B1064A81
:10178000D2690243044BDA6104E0034AD26982431E
:10179000014BDA61704700000010024029B1064A8F
:1017A00092690243044B9A6104E0034A92698243BE
:1017B000014B9A61704700000010024010B50146CD
:1017C0000022002300204A11012A02D1094C23687B
:1017D00006E0022A02D1074C236A01E0054C636A45
:1017E00001F01F02012494401C400CB1012000E0D4
:1017F000002010BD0010024000210B4A11700A4A5F
:10180000203A82F82010012802D0042808D103E0F1
:101810000121054A117004E00521034A117000E01E
:1018200000BF00BF7047000020100240014908605F
:10183000704700003C0442420249096A0143014AE0
:1018400011627047001002400348008840F0100009
:1018500001490880704700000428004003480088C0
:101860004FF6EF7108400149088070470428004096
:10187000002103480188001F008841EA00407047AA
:101880001C28004000B50246FFF7DEFF100C03499C
:101890000880091D0A80FFF7E1FF00BD18280040FD
:1018A00000B50246FFF7D0FFC2F3034003490880AA
:1018B000091D0A80FFF7D2FF00BD00000828004084
:1018C00000BF0348008800F020000028F9D07047CE
:1018D00004280040074800884FF6F7710840054982
:1018E000088000BF0348008800F008000028F9D0F5
:1018F000704700000428004070470000F8B5044617
:101900000D460127052608233C222C4801782C4847
:101910000078FFF7CDFD082201213846FFF798FD3A
:101920000B2211213846FFF793FD08233A2221218B
:101930003846FFF7BDFD08200090E28802232921E8
:101940003846FFF7B3FE08233A2239213846FFF71D
:10195000AFFD082000902289022341213846FFF77D
:10196000A5FE08233A2251213846FFF7A1FD0820A1
:1019700000906289022359213846FFF797FE0B2217
:1019800001213046FFF764FD0C2211213046FFF79C
:101990005FFD701C06230BA22121FFF7AEFE08237A
:1019A0003A223F213046FFF783FD082004232A46D0
:1019B000472100903046FFF779FEF8BD0A0000206D
:1019C00009000020286D696E2900000010B500F0A4
:1019D00001F810BD0CB5002001900090334800685C
:1019E00040F480303149086000BF3048006800F49E
:1019F000003000900198401C0190009818B901989F
:101A0000B0F5A06FF1D12948006800F4003010B1A2
:101A10000120009001E0002000900098012843D1AF
:101A20002348006840F0100021490860084600681B
:101A300020F0030008600846006840F002000860DB
:101A40001A48406819494860084640684860084696
:101A5000406840F4806048600846406820F47C108C
:101A600048600846406840F4E8104860084600684E
:101A700040F08070086000BF0C48006800F0007003
:101A80000028F9D00948406820F003000749486061
:101A90000846406840F00200486000BF03484068C4
:101AA00000F00C000828F9D10CBD00000010024025
:101AB0000020024008B501210820FFF76FFE142026
:101AC0008DF8030003208DF802004FF48070ADF80C
:101AD000000069460A48FEF7ABFF4FF40070ADF80E
:101AE000000069460648FEF7A3FF012211020448E0
:101AF000FFF736F8012251020148FFF731F808BD1F
:101B0000000C014010B5012251020A48FFF728F8E5
:101B1000012211020748FFF723F800224FF4007159
:101B20000448FFF71DF800224FF480710148FFF7C9
:101B300017F810BD000C014010B500224FF40071E1
:101B40000648FFF70DF8012211020448FFF708F8D4
:101B5000012251020148FFF703F810BD000C0140BB
:101B60007047000010B51348006840F001001149AB
:101B7000086008464068104908400E494860084619
:101B800000680E4908400B4908600846006820F4C8
:101B9000802008600846406820F4FE0048604FF44A
:101BA0001F008860FFF712FF4FF0006004490860D3
:101BB00010BD0000001002400000FFF8FFFFF6FE1D
:101BC00008ED00E010B50121044800F01BF80128E1
:101BD00003D10121014800F006F810BD00040040C7
:101BE000CA4302827047CA430282704721B1028809
:101BF00042F00102028004E002884FF6FE731A40B0
:101C00000280704730B50246002000230024158A68
:101C100005EA0103958905EA010413B10CB101201D
:101C200000E0002030BD1AB183890B43838102E0BC
:101C300083898B438381704701894FF6F872114085
:101C400001817047002202881D4B98420ED01D4B27
:101C500098420BD0B0F1804F08D01B4B984205D072
:101C60001A4B984202D01A4B984204D14FF68F7308
:101C70001A404B881A43174B984207D0164B98428C
:101C800004D04FF6FF431A40CB881A4302808B885A
:101C900083850B8803850A4B98420BD0094B9842E9
:101CA00008D00E4B984205D00D4B984202D00D4BF8
:101CB000984201D10B7A038601238382704700008A
:101CC000002C0140003401400004004000080040A6
:101CD000000C004000100040001400400040014093
:101CE00000440140004801401FB501210220FFF7D8
:101CF00045FD1C48FFF7A0FF0020ADF80A00ADF835
:101D0000060042F20F70ADF8080041F61F40ADF832
:101D1000040000208DF80C0001A91248FFF792FF83
:101D200001211048FFF75CFF012211460D48FFF723
:101D30007AFF4FF4A060FFF7F9FA1D208DF800003C
:101D400001208DF8030002208DF8010001208DF89C
:101D500002006846FFF7B2FA01210248FFF746FF8A
:101D60001FBD00000004004010B540F2255121487D
:101D700000F059F801283CD11E4800F07EF8C4B2AA
:101D80001D48007858B9402C2DD11C48007850BB14
:101D900001201949087000201949087023E01648ED
:101DA000007801280FD10D2C03D1022012490870B0
:101DB00019E0144812490978445411480078401C2D
:101DC0000F4908700FE00C48007802280BD10A2C4C
:101DD00009D10020084908700A49094A1278885434
:101DE00001200649087040F22551024800F00CF825
:101DF00000BF10BD0038014002000020010000209B
:101E0000030000202000002010B50022002340F62F
:101E10006A14A14200D100BF0A1201249440A3B267
:101E2000DC43048010BD70B5024600240023002569
:101E3000002040F66A16B14200D100BFC1F342153E
:101E400001F01F03012606FA03F3012D02D1968942
:101E5000334006E0022D02D1168A334001E0968A13
:101E600033400C12012606FA04F41688344013B1EC
:101E70000CB1012000E0002070BD01468888C0F34D
:101E80000800704700BFFEE7FFF76FFAFFF734F86E
:101E9000FEF788FBFFF728FFFFF78AF901E0FEF75E
:101EA00091FEFCE721F00042A2F16052B2F5801FE2
:101EB00001F0004328BFD2F17F6C0BD95FEA001C10
:101EC00043EAC20242EB507018BF704728BF20F0AF
:101ED00001007047B2F5801FBCBF184670474FEA3B
:101EE000410C1CF5001F02D2084600F0BABA70B5CA
:101EF00000F0C6F800000089FFF7F6BF4FF0004081
:101F0000A0F580007047B0FA80F310FA03F10AD010
:101F1000C3F11D0303F580634FEA41504FEA0352BA
:101F200002EBD12170474FF000007047DFF848C145
:101F300070B51CEA111E1EBF1CEA13159EEA0C0F99
:101F400095EA0C0F00F06F8081EA030423EA4C133A
:101F50004EEAD47E21EA4C1141F4801143F48013FF
:101F6000AE44A1FB024CA0FB0365AEF17F7E3619A7
:101F700055EB0C05A1FB034C4CF10003A0FB021C2C
:101F800016EB0C06654153F10003094218BF46F0F9
:101F9000010613F4007F0BD14FEA03314FEA0530FD
:101FA000340341EA155140EA16506FF003020AE08B
:101FB0004FEAC3214FEAC520F40241EA555140EAF5
:101FC00056506FF0020202EB2E4201EB025585EAF9
:101FD000CE710AD05FEA440C18BF24F0004450F1DF
:101FE000000041F1000120EAD47040F2FE7C62451D
:101FF00000D270BDA84214BF4FF080444FF040445F
:10200000002E08BF0024BEF1806FA8BFA1F1C0411F
:10201000BDE8704080F282804FF0000001F1C041C5
:1020200001F0004170479EEA0C0F0CEA131518BF2F
:1020300095EA0C0F06D04FF0000081EA030E0EF077
:10204000004170BD00F01CF88900013E00F007B8A7
:1020500000F009B84FEA430C5FEA5C5C08D081EA03
:10206000030100F05BB84FEA410C5FEA5C5CF6D11B
:102070004FF00000014970470000FF070000F87FA3
:102080000EF1020E2EF0030E5EF8046B364205D4FC
:10209000012A43EB030515F5001F12D8012841EB77
:1020A000010C1CF5001F0CD80ED14FEAD17C15F5A0
:1020B000001F0CEB4C0C0CF1020C08BF4CEBD37C5A
:1020C00004E04FF0080C01E04FEAD37C0CEB4C0528
:1020D00026FA05F606F00706B6F1040C06D20EEB5A
:1020E000860CBDE870404CF0010C6047DFE80CF056
:1020F000090B02024FF000414FF00000A1F5002152
:1021000070BD19461046012851EB010418BFD4F5E3
:10211000001484BF002001F0004170BD0808A0F544
:1021200000114FEA3101704790EA010F48BF81F07A
:10213000004100F1DE81421A3CBF801A89184FEA43
:10214000D0524FF07F4C1CEA410FA2EBD15318BF85
:102150009CEA026F00F03B804FF0004C4CEA0020FC
:102160004CEA012121FA03FC10EB0C0C1ED202F107
:10217000FF325FEA1C2040EBC25038BF70471CF0B2
:102180007F0F4FEA400C18BFBCF17F4F38BF70473C
:10219000C3F12003994008BF20F00100BCF17F4F3C
:1021A00038BF7047A0F1C04000F05BB94FEA3C0077
:1021B000000A40EBC25028BF1CF0FF0F4FEA400C52
:1021C000E6D018BFBCF17F4F38BF7047EAE79CEA02
:1021D000026F05D010EA5C0F08BF00F000407047A6
:1021E00010B500F0F8F800BF64FBBE3E401058BFC9
:1021F000C0F14040491058BFC1F140418142EFF366
:1022000000807047C10DD1F19E0206DB4FEA00232A
:1022100043F0004323FA02F07047004207D54FEA2B
:102220004001B1F1FE4F02D24FF00000704710B5EF
:1022300000F0D1F849922480002070476FEA200016
:1022400070470000B0FA80F310FA03F2C3F19D0367
:102250000AD0D90501EB1220530638BF704700F1B0
:10226000010008BF20F001007047000050EA010C97
:1022700000F113801CF5000F58BFBCF5000F01D40E
:102280008842704707D710F5000F58BF11F5000FAF
:1022900015D488427047894270471CF5000F04D559
:1022A000BCF5000FF7D5814270474FF0807C1CEBE6
:1022B000400F38BF1CEB410F01D28142704710B56F
:1022C00000F089F8922449004FF000504FF08051FF
:1022D000FFF78CBF4FF47F0C1CEAD0121EBF1CEA24
:1022E000D11392EA0C0F93EA0C0F00F0478090EAAA
:1022F000010F48BF42F480724FF0004C4CEA0020BE
:102300004CEA012102EB0302A0FB0113A2F500023B
:10231000002918BF43F001035B0028BF4FEA3303D5
:1023200042EB22425FEA132C4CEBC2502EBFBCEBB7
:10233000436FB2F57C0F70474FEA036CBCF1004F5E
:1023400008BF20F00100B2F57C0F38BF70470BD5F5
:1023500082F0FF0212F5803FC8BF704700F1C04015
:10236000D8BF00F00040704700F5000C5FEA4C0C4D
:1023700048BF7047B0F1C04000F073B890EA010F59
:102380000CEAD11348BF42F48072624538BF6345FE
:1023900004D280EA010000F00040704710B500F060
:1023A0001AF800BF8900013E00F007B800F009B834
:1023B0005FEA410C5FEA1C6C08D080EA010000F083
:1023C00050B85FEA400C5FEA1C6CF6D14FF0004059
:1023D000A0F5800070470EF1020E2EF0030E5EF89D
:1023E000044B244204D44FEA4102B2F17F4F11D88A
:1023F0004FEA4003B3F17F4F0CD80ED14FEAD07CA7
:10240000B2F17F4F0CEB4C0C0CF1020C08BF4CEB03
:10241000D17C04E04FF0080C01E04FEAD17C0CEBDA
:102420004C0324FA03F404F00704B4F1040C06D2BC
:102430000EEB840CBDE810404CF0010C6047DFE867
:102440000CF0070802024FF00040A0F5800010BD1C
:102450000846420018BFD2F1807288BF00F00040E9
:1024600010BDFF2141EAD050C005704751EA000C71
:1024700000F113801CF5000F58BFBCF5000F01D40C
:102480008142704707D711F5000F58BF10F5000FB4
:1024900015D481427047894270471CF5000F04D55E
:1024A000BCF5000FF7D5884270474FF0807C1CEBDD
:1024B000410F38BF1CEB400F01D28842704780EAC1
:1024C000010081EA000180EA0100FFF7F8BE80F018
:1024D000004090EA010F7FF52EAE81F0004100F040
:1024E00008B8000090EA010F48BF81F000413FF5B5
:1024F00022AE421A04D882F00042A0EB020011443E
:102500004FEAD0524FF07F4C1CEA410FA2EBD1535F
:1025100018BF9CEA026F4AD04FF0004C4CEA0020F2
:102520004CEA012121FA03FCB0EB0C0C0FD412F0A1
:10253000FE0F36D05FEA4C001DD5001240EBC250B2
:1025400038BF70471CF03F0F18BF70470BE0A2F177
:1025500001025FEA1C2040EBC25038BF70471CF0FC
:102560007F0F18BF7047C3F12003994014BF401E6E
:1025700020F00100704780084FEA122308BF70471F
:10258000B0FA80FCA2EB0C02CCF1280C60FA0CF043
:1025900093EA122F04BF00EBC25070474FEAC3709A
:1025A0007047130A5FEADC1008BF7047F6E79CEA41
:1025B000026F04D010EA5C0F08BF0020704710B50E
:1025C000FFF709FF40DFF63E81F000407047000052
:1025D000E807010001000C001E001E0000000000C2
:1025E00000000000002F000000000700070000149A
:1025F0007F147F1400242A7F2A12006264081323A8
:1026000000364955225000000503000000001C223E
:102610004100000041221C000014083E081400087C
:10262000083E0808000000A060000008080808082C
:10263000000060600000002010080402003E5149C4
:10264000453E0000427F4000004261514946002162
:1026500041454B31001814127F100027454545397C
:10266000003C4A49493000017109050300364949D7
:10267000493600064949291E000036360000000090
:1026800056360000000814224100001414141414DB
:102690000000412214080002015109060032495984
:1026A000513E007C1211127C007F49494936003EA0
:1026B00041414122007F4141221C007F494949415B
:1026C000007F09090901003E4149497A007F080855
:1026D000087F0000417F4100002040413F01007F12
:1026E00008142241007F40404040007F020C027FDE
:1026F000007F0408107F003E4141413E007F0909F0
:102700000906003E4151215E007F09192946004615
:10271000494949310001017F0101003F4040403FEC
:10272000001F2040201F003F4038403F0063140836
:102730001463000708700807006151494543000011
:102740007F41410000552A552A55000041417F0034
:102750000004020102040040404040400000010229
:102760000400002054545478007F48444438003812
:102770004444442000384444487F0038545454189A
:1027800000087E0901020018A4A4A47C007F0804AC
:1027900004780000447D4000004080847D00007F7C
:1027A000102844000000417F4000007C0418047899
:1027B000007C0804047800384444443800FC242495
:1027C00024180018242418FC007C0804040800487D
:1027D0005454542000043F444020003C4040207C9E
:1027E000001C2040201C003C4030403C004428108D
:1027F0002844001CA0A0A07C004464544C44141441
:102800001414141400000000000000000000000078
:1028100000000000000000F800000000000000338D
:102820003000000000100C06100C06000000000034
:102830000000000040C07840C0784000043F04041D
:102840003F040400007088FC08300000001820FFDE
:10285000211E0000F008F000E018000000211C0319
:102860001E211E0000F00888700000001E21232495
:102870001927211010160E000000000000000000B3
:1028800000000000000000E0180402000000000743
:102890001820400000020418E0000000004020184A
:1028A00007000000404080F0804040000202010F1D
:1028B00001020200000000F0000000000101011F01
:1028C00001010100000000000000000080B0700065
:1028D00000000000000000000000000000010101F5
:1028E0000101010100000000000000000030300084
:1028F000000000000000000080601804006018065E
:102900000100000000E010088870E000000F1826A9
:1029100021100F0000001010F8000000000020201F
:102920003F202000007008080808F000003028242C
:10293000222130000030080808887000001820218B
:1029400021221C000000804030F800000006052411
:10295000243F242400F888888808080000192020D3
:1029600020110E0000E0108888900000000F112058
:1029700020201F0000180808886818000000003E8A
:10298000010000000070880808887000001C2221E7
:1029900021221C0000F008080810E00000011222AB
:1029A00022110F00000000C0C00000000000003035
:1029B0003000000000000080000000000000806087
:1029C0000000000000008040201008000001020408
:1029D00008102000404040404040400004040404EF
:1029E00004040400000810204080000000201008AB
:1029F00004020100007048080808F00000000030E0
:102A000036010000C030C828E810E000071827246D
:102A100023140B000000C038E0000000203C23021B
:102A20000227382008F8888888700000203F20207E
:102A300020110E00C03008080808380007182020B0
:102A40002010080008F808080810E000203F2020A7
:102A500020100F0008F88888E8081000203F202088
:102A60002320180008F88888E8081000203F20007C
:102A700003000000C03008080838000007182020B4
:102A8000221E020008F808000008F808203F210173
:102A900001213F20000808F8080800000020203F1E
:102AA0002020000000000808F8080800C08080808E
:102AB0007F00000008F888C028180800203F200187
:102AC0002638200008F8080000000000203F2020E1
:102AD0002020300008F8F800F8F80800203F003FF8
:102AE000003F200008F830C00008F808203F200010
:102AF00007183F00E01008080810E0000F10202021
:102B000020100F0008F808080808F000203F2101F5
:102B100001010000E01008080810E0000F1824244C
:102B200038504F0008F8888888887000203F2000BF
:102B3000030C302000708808080838000038202175
:102B400021221C00180808F8080818000000203F7F
:102B50002000000008F808000008F808001F2020E6
:102B600020201F000878880000C8380800000738B7
:102B70000E010000F80800F80008F800033C070008
:102B8000073C0300081868808068180820302C0370
:102B9000032C30200838C800C83808000000203F47
:102BA0002000000010080808C83808002038262136
:102BB00020201800000000FE020202000000007F3A
:102BC00040404000000C30C0000000000000000148
:102BD0000638C00000020202FE0000000040404033
:102BE0007F00000000000402020204000000000058
:102BF00000000000000000000000000080808080D5
:102C000080808080000202040000000000000000BC
:102C10000000000000008080808000000019242255
:102C200022223F2008F8008080000000003F112091
:102C300020110E000000008080800000000E112096
:102C400020201100000000808088F800000E112074
:102C500020103F200000808080800000001F222282
:102C600022221300008080F0888888180020203FEE
:102C7000202000000000808080808000006B949401
:102C80009493600008F8008080800000203F2100BD
:102C900000203F2000809898000000000020203F86
:102CA00020200000000000809898000000C0808074
:102CB000807F000008F8000080808000203F240210
:102CC0002D302000000808F8000000000020203F00
:102CD000202000008080808080808000203F2000B5
:102CE0003F20003F8080008080800000203F210046
:102CF00000203F200000808080800000001F2020F6
:102D000020201F00808000808000000080FFA12024
:102D100020110E000000008080808000000E112035
:102D200020A0FF80808080008080800020203F21C4
:102D30002000010000008080808080000033242477
:102D400024241900008080E0808000000000001F23
:102D5000202000008080000000808000001F2020D4
:102D600020103F20808080000080808000010E3095
:102D70000806010080800080008080800F300C03F6
:102D80000C300F0000808000808080000020312EF9
:102D90000E312000808080000080808080818E70D5
:102DA0001806010000808080808080000021302C87
:102DB0002221300000000000807C020200000000A0
:102DC000003F404000000000FF0000000000000045
:102DD000FF0000000002027C800000000040403F35
:102DE00000000000000601010202040400000000CF
:102DF000000000001060028C0000FE9292929292FD
:102E0000FE00000004047E01407E42427E427E427B
:102E1000427E40000000FC242424FC252624FC24BF
:102E20002424040040308F80844C55252525554CA2
:102E300080808000060909E6F80C04020202020202
:102E4000041E0000000000071F30204040404040AA
:102E500020100000008060F807404848E85F4848BC
:102E600048404000010000FF0000020B1222D20A7D
:102E7000060000000000FC04D4545454D4047F84A1
:102E8000C53604008866010063828292AB8482C1E9
:102E90000224CF0080809E9292929EE0809EB2D2C9
:102EA000929E80000808F4949292F10001F29294AC
:102EB00094F8080000FC2024A8FFA82400FC444447
:102EC000C4424000003F2221202F20A3601F0000A9
:102ED000FF00000080828282FE8282828282FE82E5
:102EE00082828000008040300F0000000000FF0060
:102EF0000000000000FC848484FC001010101010FE
:102F0000FF101000003F1010103F0000010640802D
:102F10007F000000101010FF109040A09E8282825F
:102F20009EA020000444827F01008080432C102852
:102F3000448380004030CF08281802FE222222223B
:102F4000FE02020000007F201000101F1111110965
:102F5000FF08080000F8010600F0121212F2020247
:102F600002FE000000FF0000001F1111111F0040B1
:102F7000807F000000FE225A8600027A4A4A4A4AAE
:102F80004A7A020000FF04080700FF090B0D790DC3
:102F90004B897F004020108848442424242444483E
:102FA00088102040000001000402023131020204B6
:102FB000000100004022149C786464E4E4647458C6
:102FC000981C2640002031180C0603313103060CF2
:102FD00018312000404458C0FF504C0022CC000063
:102FE000FF00000010080601FF01060004040404AD
:102FF000FF02020000020202028242F20E4282023C
:103000000202000010080402010000FF000000019D
:10301000020C00000000007E424242C24242427E58
:10302000000000008040300E1020407F44444444A3
:10303000444040001F1D1F1E1F1E1F1F1E1F1E1F5E
:103040006030000800000020140000002801000883
:103050007430000814000020FC0600004401000841
:1030600000000000000A0000000000000000000056
:04307000000000005C
:04000005080000ED02
:00000001FF
