:020000040800F2
:10000000700500200501000851160008930F000834
:10001000C9130008FD070008D325000800000000F0
:10002000000000000000000000000000C91E0008E1
:10003000510B000800000000B91B0008B92100089E
:100040001F0100081F0100081F010008CD1D000846
:100050001F0100081F0100081F0100081F01000800
:100060001F0100081F0100081F0100081F010008F0
:100070001F0100081F0100081F0100081F010008E0
:100080001F0100081F0100081F0100081F010008D0
:100090001F0100081F0100081F010008590C00087B
:1000A0001F0100081F0100081F0100081F010008B0
:1000B0001F0100081F0100081F0100081F010008A0
:1000C0001F0100081F0100081F0100081F01000890
:1000D0001F010008A12300081F0100081F010008DC
:1000E000B10B00081F0100081F010008DFF810D045
:1000F00000F036FB00480047ED290008AFF3008010
:10010000700500200648804706480047FEE7FEE7E6
:10011000FEE7FEE7FEE7FEE7FEE7FEE7FEE7FEE7B7
:10012000BD210008ED00000838B5D0E90221491EC4
:1001300001EB410102EBC1014268C1EB011102EB8D
:1001400081010268C1EB011102EB8102D0E90431A7
:1001500001EB410103EB81013023A1F5527191FBC9
:10016000F3F4174D6C4302EBC41291FBF3F403FB61
:10017000141100921A2902DB124B1A4400920C222D
:1001800091FBF2F3104C6343009C04EBC313009308
:1001900091FBF2F302FB13110C4A08E0491E40F2F6
:1001A000A324535C6343009C04EBC3130093002916
:1001B000F4DC0146684600F0F9F9009838BD00000B
:1001C0003F0C0F008051010067C20300A43B0008F0
:1001D00040EA01039B0703D009E008C9121F08C0C9
:1001E000042AFAD203E011F8013B00F8013B521E49
:1001F000F9D27047D2B201E000F8012B491EFBD2C0
:1002000070470022F6E710B513460A460446194621
:10021000FFF7F0FF204610BD10B5002200E0521C91
:10022000835C8C5CA34201D1002BF8D1D8B2E1B23F
:10023000401A10BD30B505460020034600E05B1CA7
:10024000934205D2EC5CC85C201A01D1002CF6D197
:1002500030BDF0B480EA0102D40F4200B2EB410F8E
:1002600002D20246084611464A0042D0C30DDDB212
:10027000C1F3C752AD1A202D35DAC1F3160141F48E
:10028000000204B15242C5F1200602FA06F12A41E9
:100290001044B3EBD05F23D0C4B1012DA0EBC35009
:1002A00009DCF0BC4FF0004202EAC352DBB200F5B9
:1002B000000000F0CAB9400000F1807000EBC350AC
:1002C000A0F1807040EAD170490009E0490841EA94
:1002D000C071A0EBC35000F50000400800EBC35014
:1002E000F0BC00F0A9B96142012202EB4101001B00
:1002F000F6E7F0BC704781F00041AAE780F00040CB
:10030000A7E780EA010210B502F00043400022D0C6
:100310004A001FD0010E01EB1261C0F35600C2F378
:10032000560240F4000042F40002A0FB0220000448
:100330007F39140400D0401C50EA124001D4400020
:10034000491EC2B20C0604EBD010401C4008802AA3
:1003500002D003E0002010BD20F00100002900DAE7
:100360000020184310BD30B480EA010202F00045BD
:1003700030F0004221F0004013D090B1C30DD40DF5
:10038000C2F31601C0F31600E41A41F4000140F470
:1003900000027D34914201D3641C00E04900002C2E
:1003A00002DA30BC002070474FF400000023914275
:1003B00001D3891A034340084FEA4101F7D151B1F3
:1003C000914202D14FF0004105E002D24FF001010D
:1003D00001E06FF0010103EBC450284430BC00F091
:1003E0002BB92DE9FE4F81EA030404F0004421F00B
:1003F000004100944FF0000B23F0004350EA010449
:100400005ED052EA03045BD0C3F30A54C1F30A5529
:100410002C44A4F2F3340194A0FB0254C1F3130161
:1004200041F48011C3F3130343F4801301FB02442E
:1004300000FB034E840A970A44EA815447EA835733
:10044000A4FB076802958D0A05FB07854FEA932CEC
:1004500004FB0C542705029D4FEA065847EA16375D
:10046000B5EB08056EEB070C870E920E47EA811775
:1004700042EA8312A7FB0201B6EB0B0164EB000416
:100480002B0D43EA0C335E1844EB1C50DA46514600
:10049000E7FB0201C5F313044FEA0B3343EA14539D
:1004A0004FEA0432019C43EA0603A4F10C040294CF
:1004B000009CCDE900B400F005F903B0BDE8F08F71
:1004C00000200146F9E796230022114600F0BDB84E
:1004D0000EB540F2334102910021CDE900110A46E8
:1004E0000B4600F0EFF803B000BD20F00040C10D56
:1004F000C0F3160040F400007F2901DA00207047A5
:10050000962903DCC1F19601C840704796398840AE
:10051000704701F0004330B421F0004150EA01027D
:1005200006D00A0DA2F56072C1F31301002A02DCA5
:1005300030BC00207047440F44EAC104C100E018F9
:1005400030BC00EBC25000F077B80000002801DB9F
:10055000C0F10040002901DBC1F100418142704738
:10056000002801DBC0F10040002901DBC1F100419E
:100570008842704730B50B460146002020220124F6
:1005800009E021FA02F59D4205D303FA02F5491B61
:1005900004FA02F52844151EA2F10102F1DC30BD77
:1005A000014900F003B800004401002010B50068C4
:1005B0003C22B0FBF2F302FB1303B0FBF2F00B6042
:1005C000B0FBF2F302FB1303B0FBF2F018224B6016
:1005D000B0FBF2F302FB1303B0FBF2F0021D8B60E1
:1005E0000723B2FBF3F403FB1422800040F2B5535F
:1005F00000F66C308A61B0FBF3F2B0FBF3F403FB5E
:100600001400443280084A61C8613B2802D3920733
:1006100000D0401C0022074C13460A61E25C824273
:1006200003D8801A5B1C0B61F8E7401CC8600846C1
:1006300010BD0000B03B00080029A8BF7047401C57
:10064000490008BF20F00100704710B4B0FA80FCE8
:1006500000FA0CF050EA010404BF10BC704749B125
:10066000CCF1200421FA04F411FA0CF118BF012195
:1006700021430843A3EB0C01CB1D4FEA00614FEA75
:10068000102042BF002010BC704700EBC350104444
:100690000029A4BF10BC7047401C490008BF20F0CF
:1006A000010010BC704710B5141E73F1000408DA85
:1006B000401C41F1000192185B411A4301D120F026
:1006C000010010BD2DE9F04D92469B4611B1B1FAE3
:1006D00081F202E0B0FA80F22032904600F052F847
:1006E00004460F4640EA0A0041EA0B0153465A46C7
:1006F000084313D0114653EA010019D0C8F1400253
:10070000504600F04EF805460E46504659464246C1
:1007100000F038F8084305D0012004E020463946AF
:10072000BDE8F08D0020054346EAE0762C433743D0
:100730000A986305E40AA0EB08000022FD0A44EAD7
:1007400047540A3002D500200146E9E70105101997
:100750006941DDE9084500196941BDE8F04DA2E7AE
:10076000064C074D06E0E06840F0010394E80700FE
:1007700098471034AC42F6D3FFF7BCFC1C3E00088F
:100780003C3E0008202A04DB203A00FA02F1002057
:1007900070479140C2F1200320FA03F319439040BF
:1007A0007047202A04DB203A21FA02F0002170472A
:1007B00021FA02F3D040C2F12002914008431946C9
:1007C0007047000008B501460020009003480090E3
:1007D0000098084400900098008808BD006C004014
:1007E00008B500220092044A0092009A0244009246
:1007F000009A116008BD0000006C004000BFFEE7D9
:100800003EB50E223FA14348FFF714FD002877D1E3
:10081000002400256CE03F49081907223EA1FFF79C
:1008200009FD58B900BF2046611CCCB23949085CAB
:100830003A28F8D10846005D394908703549081949
:100840000E2238A1FFF7F6FCB0B900BF2046611CAC
:10085000CCB23049085C3A28F8D100BF2D48025D7F
:100860002846691CCDB202A90A542046611CCCB2AC
:100870002849085C7D28F1D1264908190E222DA1AE
:10088000FFF7D8FCB0B90EE000BF2248025D284651
:10089000691CCDB201A90A542046611CCCB21D4985
:1008A000085C7D28F1D12046611CCCB21949085C56
:1008B0003A28E9D1174908190E2222A1FFF7BAFCFC
:1008C000B0B90EE000BF1348025D2946681CC5B2EE
:1008D0000DF801202046611CCCB20E49085C7D2831
:1008E000F1D12046611CCCB20A49085C3A28E9D112
:1008F0002046611CCCB20749085C00288BD100BFA0
:100900003EBD00002B4D5154545355425245435661
:100910003A30000048000020466565645F454400A9
:100920002900002046656564496E74657276616CC5
:100930005F68000046656564496E74657276616C37
:100940005F6D000046656564496E74657276616C22
:100950005F73000008B50121082001F03FF9102065
:100960008DF803000120ADF8000003208DF802008F
:100970006946024800F070FA08BD0000000C014012
:1009800008B548208DF803000120ADF80000694645
:10099000014800F061FA08BD000C014008B51020C4
:1009A0008DF803000120ADF8000003208DF802004F
:1009B0006946024800F050FA08BD0000000C0140F2
:1009C00070B5002400251EE06410FFF7E7FF012149
:1009D0000F4800F0D5FA022000F0D3F801210C48AE
:1009E00000F0D0FA022000F0CCF8FFF7C9FF012197
:1009F000074800F0BCFA08B144F080043C2000F045
:100A0000C0F8681CC5B2082DDEDB204670BD0000B2
:100A1000000C01402DE9F84F00200090824600F0C4
:100A20003FF8CC2000F06CF8442000F069F840F268
:100A3000EE2000F08EF800F033F8CC2000F060F8E3
:100A4000BE2000F05DF8FFF7BBFF8346FFF7B8FF5D
:100A500081464C464FF6FF7000EA042444EA0B043A
:100A600004F47840B0F5784F04D1E043401C84B2E0
:100A7000012000902046FFF72BFD07460022074B80
:100A8000FFF7AFFC0546FFF744FD8246009808B12A
:100A90008AF0004A5046BDE8F88F00000000B03FE1
:100AA00010B50124FFF77AFF0121144800F06AFA1B
:100AB000052000F066F80121104800F061FA4FF4BB
:100AC000F07000F05EF801210C4800F05BFA3C2069
:100AD00000F057F8FFF754FF0121084800F047FAEB
:100AE00004464FF4F07000F04CF8FFF757FF012177
:100AF000024800F047FA204610BD0000000C0140FB
:100B000070B5044600251EE0FFF748FF01210F489D
:100B100000F036FA022000F034F804F0010020B1B1
:100B200001210A4800F02EFA03E00121074800F0F5
:100B300027FA3C2000F025F80121044800F022FAB1
:100B40006410681CC5B2082DDEDB70BD000C0140CE
:100B5000704700B5034603E04FF47A7000F011F8D7
:100B6000181EA3F10103F7D100BD10B5044603E040
:100B70004FF47A70FFF7EDFF201EA4F10104F7D1C6
:100B800010BD00EBC001C9004FF0E022516100210F
:100B900091610521116100BF4FF0E021096901F465
:100BA00080310029F8D004214FF0E0221161704714
:100BB00010B54FF4806000F0A1F8012813D1810234
:100BC000234800F0D4F950B900BF4FF480612048A9
:100BD00000F0CDF90028F8D008201E4908704FF425
:100BE000806000F085F84FF4006000F087F801287D
:100BF00013D1C102164800F0BAF950B900BF4FF442
:100C00000061134800F0B3F90028F8D00220114920
:100C100008704FF4006000F06BF84FF4805000F063
:100C20006DF8012813D10103094800F0A0F950B96B
:100C300000BF4FF48051064800F099F90028F8D021
:100C40000120044908704FF4805000F051F810BDA5
:100C5000000C01401400002010B5202000F04EF8D8
:100C6000012811D12021204800F081F948B900BFA6
:100C700020211D4800F07BF90028F9D005201B49F0
:100C80000870202000F034F8402000F037F80128E8
:100C900011D14021144800F06AF948B900BF402141
:100CA000114800F064F90028F9D004200F490870B9
:100CB000402000F01DF8802000F020F8012811D11C
:100CC0008021094800F053F948B900BF8021064847
:100CD00000F04DF90028F9D0062004490870802062
:100CE00000F006F810BD0000000C014014000020C8
:100CF00001490860704700001404014001460020CB
:100D00000022074B1B6803EA0102054B14331B68E2
:100D10000B4013B10AB1012000E000207047000031
:100D200000040140002123498279002A3AD00A4672
:100D3000126803689A430B461A600A1D126803681A
:100D40009A430B1D1A60027911440A6803681A431A
:100D50000A60184A0832126803689A43154B083330
:100D60001A601A1D126803689A43124B0C331A60FA
:100D70004279102A0ED11A1F126803681A430D4BCC
:100D800008331A601A1D126803681A43094B0C33A2
:100D90001A600DE00749427911440A6803681A4352
:100DA0000A6005E0027911440A6803689A430A6000
:100DB0007047000000040140FEB506460F46144689
:100DC0001D46312C00D10124302C00D10024FA2101
:100DD0000D48FFF716FAA87869782A782346CDE9F6
:100DE000002102903A463146084801F0F5FB4FF4E5
:100DF0007A70FFF7AEFE06A10348FFF70DFA08B9B7
:100E00000120FEBD0020FCE748000020203C000837
:100E10004552524F5200000030B500228B071C0F84
:100E20000F2303FA04F20B4B8C1053F82430934336
:100E3000084C8D1044F8253023468C1053F824308C
:100E40008C07240F00FA04F42343024C8D1044F85D
:100E5000253030BD080001402DE9F0410246002553
:100E60000026002000230024002791F803C00CF086
:100E70000F0591F803C00CF0100CBCF1000F03D06B
:100E800091F802C04CEA050591F800C0BCF1000FD2
:100E900031D0146800202BE04FF0010C0CFA00F365
:100EA000B1F800C00CEA03069E4220D183004FF047
:100EB0000F0C0CFA03F7BC4305FA03FC4CEA0404DC
:100EC00091F803C0BCF1280F06D14FF0010C0CFAC9
:100ED00000FCC2F814C00AE091F803C0BCF1480F4E
:100EE00005D14FF0010C0CFA00FCC2F810C0401CF8
:100EF0000828D1D31460B1F800C0BCF1FF0F34DD75
:100F0000546800202EE000F1080C4FF0010808FAA8
:100F10000CF3B1F800C00CEA03069E4221D1830015
:100F20004FF00F0C0CFA03F7BC4305FA03FC4CEA34
:100F3000040491F803C0BCF1280F05D100F1080C9E
:100F400008FA0CF8C2F8148091F803C0BCF1480FFD
:100F500007D100F1080C4FF0010808FA0CF8C2F8AC
:100F60001080401C0828CED35460BDE8F0810246B2
:100F7000002093680B400BB1012000E00020704777
:100F800041617047016170470AB1016100E0416150
:100F9000704700BFFEE7000070B50546002415E06D
:100FA0008020204100EA05024FF400710E48FFF74F
:100FB000EBFF012211020C48FFF7E6FF00224FF47D
:100FC00080710948FFF7E0FF601CC4B2082CE7DB22
:100FD000012211020448FFF7D7FF00224FF480716D
:100FE0000148FFF7D1FF70BD000C01401FB5012182
:100FF000082000F0F3FD0121084600F0EFFD482035
:101000008DF80F004FF4E750ADF80C0003208DF879
:101010000E0003A92B48FFF71FFF04208DF80F00D7
:101020000220ADF80C0003208DF80E0003A925481E
:10103000FFF712FF05210120FFF7EEFE0621012038
:10104000FFF7EAFE07210120FFF7E6FE0A21012053
:10105000FFF7E2FE0B210120FFF7DEFE0C2101204D
:10106000FFF7DAFE4FF4E750019001208DF80A00F7
:1010700000208DF808000C208DF8090001A8FFF76A
:1010800051FE4FF4A06000F01DFB17208DF800000A
:1010900001208DF803008DF801008DF802006846EC
:1010A00000F0D8FA28208DF8000001208DF8030008
:1010B0008DF8010002208DF80200684600F0CAFA9F
:1010C0001FBD0000000C01402DE9FF5F06460C46E5
:1010D00017469846DDF838904FF0010A4FF0030BA1
:1010E00005200390072002900B220121584600F0B2
:1010F0007BFB0C221121584600F076FB08233A2294
:101100002121584600F0A0FBA5480078312824D1C1
:1011100008200090227802232921584600F092FCF2
:1011200008233A223921584600F08EFB082000900F
:10113000627802234121584600F084FC08233A22B9
:101140005121584600F080FB08200090A27802232D
:101150005921584600F076FC0AE01C222921584605
:1011600000F042FB08238FA23921584600F091FC81
:101170004FB30A220121029800F036FB0F22112101
:10118000029800F031FB10222121029800F02CFB84
:1011900011223121029800F027FB08232822412147
:1011A000029800F051FB0820032300907F4802784A
:1011B0004921029800F046FC082329226121029867
:1011C00000F042FB1EE016220121029800F00CFB09
:1011D00017221121029800F007FB08233A2221214F
:1011E000029800F031FB0820032300906F4802783A
:1011F0002921029800F026FC08236DA241210298C3
:1012000000F047FCB8F1000F05D10D227021072036
:1012100000F0EAFA04E00E227021072000F0E4FA60
:10122000B9F1000F66D1FFF73BFC00283FD1FFF773
:10123000F1FB6149086000220121039800F0D4FA13
:1012400001221121039800F0CFFA022221210398F4
:1012500000F0CAFA08233A223121039800F0F4FA88
:10126000082356A26121039800F013FC0021524884
:101270000068FFF775F90BD8082001210323CDE999
:1012800000104D4839210268039800F02DFB0AE058
:10129000082001210223CDE90010474839210268C6
:1012A000039800F021FB0520FFF753FC22E0002209
:1012B0000121039800F098FA01221121039800F00F
:1012C00093FA03222121039800F08EFA042231219F
:1012D000039800F089FA05224121039800F084FA6E
:1012E00006225121039800F07FFA0722612103981A
:1012F00000F07AFABEBB00F0CDF8054608220121C5
:10130000504600F071FA0B221121504600F06CFAA1
:1013100008233A222121504600F096FA0820009036
:10132000EA8802232921504600F08CFB08233A2248
:101330003921504600F088FA082000902A890223BB
:101340004121504600F07EFB08233A2251215046AD
:1013500000F07AFA082000906A8902235921504649
:1013600000F070FB1AE0FFE714220121084600F0AC
:101370003BFA15221121012000F036FA0922212121
:10138000012000F031FA0A223121012000F02CFA6C
:1013900008230BA24121012000F07BFBBDE8FF9F49
:1013A0002900002020202020202020002D000020C7
:1013B00020202020200000003000002020200000FD
:1013C0002E2E2E202020000000BFFEE700B587B0A3
:1013D0000121080700F0F2FB0121C80600F0EEFB36
:1013E000012000F0E3FB0420FFF7ECF94FF6FE616B
:1013F000884225D0264A07CA01AB07C3012000F066
:1014000085FC00BF412000F063FC0128FAD10002F6
:1014100000F09CFC012000F093FC00F043FD00F084
:1014200037FD47F6FF7000F023FD00F031FD01A805
:1014300000F090F84FF6FE610420FFF7D1F903E0C9
:1014400000F030FD00F024FD0121084600F0E4FC2E
:101450004FF40030059001208DF81A0000208DF81F
:1014600018000C208DF8190005A8FFF75BFC03207D
:101470008DF8100001208DF8110000208DF8120069
:1014800001208DF8130004A800F0E4F807B000BDB7
:10149000E02F000810B58CB000F07CFC00F5E140B6
:1014A0000B900BA8FFF77CF804462C2221466846D7
:1014B000FEF78EFE059800F26C70084908800498CB
:1014C000401C4880039888800298C8800198088151
:1014D0000098488108460CB010BD00003C00002078
:1014E00070B50820FFF76EF9194908700C20FFF756
:1014F00069F9174948701020FFF764F9144988709A
:1015000008460078C0EB00108000C0EB001080009F
:101510004978C1EB011100EB81000D49897808443D
:10152000441E84B100F022FC00F034FC051928466A
:1015300000F082FC00F0ACFC00F022FC0121022053
:1015400000F06AFC03E00021022000F065FC70BDA1
:101550002A00002030B58BB004462088A0F26C70C1
:1015600005906088401E0490A0880390E088029057
:1015700020890190608900906846FEF7D5FDA0F5AE
:10158000E145284600F066FC00F082FC0BB030BD5F
:1015900000B587B04FF4A06000F094F801218803F3
:1015A00000F01CFB0121084600F018FB012104207B
:1015B00000F014FB18208DF81B004FF40070ADF8FC
:1015C000180003208DF81A0006A91F48FFF744FCF5
:1015D00048208DF81B004FF48060ADF81800032000
:1015E0008DF81A0006A91848FFF736FC4FF4E130D1
:1015F00002900020ADF814000C20ADF8120000207D
:10160000ADF81000ADF80E00ADF80C0002A90F48BF
:1016100000F06AFF25208DF8040001208DF80700F6
:101620008DF8050000208DF8060001A800F012F8E2
:10163000012240F22551054800F031FF0121034805
:1016400000F0EAFE07B000BD00080140003801408C
:101650007047000070B5002100230F22C47804B346
:10166000154C246804F4E064C4F5E064210AC1F177
:101670000403CA40447804FA03F1847814402143F7
:1016800009010E4C0678A155047804F01F050124C9
:10169000AC4005786D11AD0005F1E025C5F80041BD
:1016A00009E0047804F01F050124AC40044D0678DD
:1016B000761145F8264070BD0CED00E000E400E036
:1016C00080E100E002490143024A116070470000D6
:1016D0000000FA050CED00E070B500240EE00021DA
:1016E000204600F06FF8002504E0002000F0F9F932
:1016F000681CC5B2802DF8DB601CC4B2082CEEDB80
:1017000070BD70B5002406E0002500E06D1CB5F545
:101710007A7FFBD3641CB4F57A7FF5D300F0F6FC36
:10172000AE2000F0CEF9D52000F0CBF9802000F0FB
:10173000C8F9A82000F0C5F93F2000F0C2F9D32075
:1017400000F0BFF9002000F0BCF9402000F0B9F92A
:10175000A12000F0B6F9C82000F0B3F9DA2000F0BB
:10176000B0F9122000F0ADF9812000F0AAF9CF20E5
:1017700000F0A7F9D92000F0A4F9F12000F0A1F9B8
:10178000DB2000F09EF9302000F09BF9A42000F04F
:1017900098F9A62000F095F98D2000F092F9142018
:1017A00000F08FF9AF2000F08CF9FFF795FF70BDC6
:1017B00010B50246012000E050430B1EA1F10101CB
:1017C000FAD110BD70B505460C4645F0B00000F0EA
:1017D00078F9102141EA141000F073F904F00F00B9
:1017E00000F06FF970BD00002DE9F04105460E468E
:1017F00017464FF01008721ED1B26A1ED0B2FFF722
:10180000E1FF002407E00F4901EB4711085D00F0FC
:1018100068F9601CC4B24445F5DB721ED1B2E8B26F
:10182000FFF7D0FF002409E0064901EB471104EB64
:101830000802885C00F055F9601CC4B24445F3DB33
:10184000BDE8F081043800082DE9F04105460E4658
:1018500017469846B8F1080F29D1721ED1B26A1EF8
:10186000D0B2FFF7AFFF002409E0A7F120011C4A26
:1018700002EB0111085D00F034F9601CC4B2082CC1
:10188000F3DB721ED1B2E8B2FFF79CFF00240BE03D
:10189000A7F12001124A02EB011204F10801505C89
:1018A00000F01FF9601CC4B2082CF1DB15E0721EB9
:1018B000D1B26A1ED0B2FFF785FF00240BE0A7F17A
:1018C000200101EB4101074A02EB4101085D00F0F4
:1018D00008F9601CC4B2062CF1DBBDE8F081000001
:1018E00014320008EC2F00082DE9FF4F85B00E469A
:1018F00091461F46DDE912A400214846FEF726FE68
:1019000053D289F0004923462D2231460598FFF72E
:101910009BFF4846FEF7E9FD83463019C1B23B46BE
:101920005A460094059800F08DF8BAF1000F08DDD2
:10193000781C04FB0060C1B2234641A2059800F068
:10194000A8F802254FF00A082AE04046FEF7BBFD42
:1019500002904846FEF7C9FD0090FEF7B4FD4946E7
:101960000190FEF7CBFC83460299FEF7CAFC039078
:10197000FEF7BBFD0A21B0FBF1F201FB120000945F
:101980000490781904FB0060C1B20123DDE9042052
:1019900000F058F8681CC5B208EB88004FEA400810
:1019A0000AF101008542D0DD46E04846FEF79DFD84
:1019B00083463B465A4631460094059800F042F86B
:1019C000BAF1000F07DD07FB0460C1B223461CA279
:1019D000059800F05EF801254FF00A082AE040461D
:1019E000FEF771FD02904846FEF77FFD0090FEF77E
:1019F0006AFD83464946FEF781FC01900299FEF795
:101A000080FC0390FEF771FD0A21B0FBF1F201FBAF
:101A1000120000940490781904FB0060C1B2012305
:101A2000DDE9042000F00EF8681CC5B208EB880060
:101A30004FEA40085545D2DD09B0BDE8F08F0000FF
:101A40002E0000002DE9F04781460E4617461D4640
:101A5000DDF82080002418E0281B411E0A20FFF733
:101A6000A7FEB7FBF0F00A21B0FBF1F201FB120078
:101A700030304FFA80FA08FB0460C1B24346524648
:101A80004846FFF7E1FE601CC4B2AC42E4DBBDE8AF
:101A9000F0872DE9F04180460E4615461F4600248A
:101AA0000AE0285D42B207FB0460C1B23B464046F3
:101AB000FFF7CAFE601CC4B2285D0028F1D1BDE862
:101AC000F08110B5044600F049FB7820FFF764FA76
:101AD0000020FFF761FA2046FFF75EFA00F058FB9E
:101AE00010BD10B5044600F039FB7820FFF754FA1A
:101AF0004020FFF751FA2046FFF74EFA00F048FB6E
:101B000010BD000000B589B00121084600F056F86C
:101B10000121042000F062F818208DF82300022033
:101B2000ADF8200003208DF8220008A91A48FFF71D
:101B300093F94FF0804000F07DFB0020ADF81A00D3
:101B4000ADF8160044F61F60ADF818004720ADF858
:101B5000140000208DF81C0005A94FF0804000F013
:101B6000CDFB01A800F0BEFB6020ADF80400002012
:101B7000ADF80C000120ADF806000020ADF80A0019
:101B800001A94FF0804000F05BFB0121880700F0C5
:101B900045FB09B000BD00000008014010B5044637
:101BA00021464FF0804000F0A7FB10BD01490862BC
:101BB0007047000000000E427047000029B1064A3D
:101BC000D2690243044BDA6104E0034AD2698243DA
:101BD000014BDA61704700000010024029B1064A4B
:101BE00092690243044B9A6104E0034A926982437A
:101BF000014B9A61704700000010024030B500218F
:101C00000022002400232D4D6D6805F00C0121B148
:101C1000042905D0082923D105E0294D056022E0DB
:101C2000274D05601FE0254D6D6805F47012234DAA
:101C30006D6805F48034022505EB92421CB9214DF4
:101C4000554305600BE01D4D6D6805F400351DB171
:101C50001C4D5543056002E0194D5543056002E0F7
:101C6000174D056000BF00BF144D6D6805F0F00111
:101C70000909154D6B5C0568DD4045600F4D6D68C9
:101C800005F4E061090A104D6B5C4568DD40856034
:101C90000A4D6D6805F46051C90A0B4D6B5C4568CF
:101CA000DD40C560054D6D6805F44041890B074D69
:101CB0006B5CC568B5FBF3F5056130BD00100240F3
:101CC00000127A0000093D000000002010000020F2
:101CD00010B501460022002300204A11012A02D13A
:101CE000094C236806E0022A02D1074C236A01E06E
:101CF000054C636A01F01F02012494401C400CB1A2
:101D0000012000E0002010BD0010024000210B4A1D
:101D100011700A4A203A82F82010012802D00428C3
:101D200008D103E00121054A117004E00521034AAE
:101D3000117000E000BF00BF70470000201002409B
:101D400001490860704700003C0442420249096AA8
:101D50000143014A1162704700100240024909889C
:101D60008143014A118070470428004003480088DD
:101D700040F010000149088070470000042800402E
:101D8000034800884FF6EF7108400149088070470A
:101D900004280040002103480188001F008841EA10
:101DA000004070471C28004001460020064A128867
:101DB0000A40D0B2044A121F12880A4012B108B178
:101DC000012000E0002070470428004010B50220E8
:101DD000FFF7EAFF38B101200D4908700220FFF734
:101DE000BDFFFFF77DFB0120FFF7DEFF50B1094883
:101DF00001780078401C074A1070142902DD002089
:101E0000114608700520FFF7A9FF00F041F810BD4A
:101E1000280000203600002029B1064A128802431B
:101E2000044B1A8004E0034A12888243014B1A8053
:101E3000704700000028004000B50246FFF796FFFB
:101E4000100C03490880091D0A80FFF799FF00BDA7
:101E50002028004000B50246FFF788FF100C034918
:101E60000880091D0A80FFF78BFF00BD182800407D
:101E700000B50246FFF77AFFC2F30340034908802A
:101E8000091D0A80FFF77CFF00BD00000828004004
:101E900000BF0348008800F020000028F9D07047F8
:101EA00004280040074800884FF6F77108400549AC
:101EB000088000BF0348008800F008000028F9D01F
:101EC0007047000004280040704710B5FFF71AFE65
:101ED00010BD00002DE9F04104460A492046FEF7F6
:101EE00042FA80460849FEF70CFA07460749FEF712
:101EF000B0F90646FEF7F9FA85B22846FFF74EFE1E
:101F0000BDE8F081000034430000FA440000FA43C9
:101F1000F8B504460D4601260527404800780128FB
:101F200003D03E480078052807D113223C480178A9
:101F30003A480078FFF758FC06E01222384801784A
:101F400036480078FFF750FC082201213046FFF7A1
:101F50004BFC0B2211213046FFF746FC08233A22A6
:101F600021213046FFF770FC08200090E288022310
:101F700029213046FFF766FD08233A2239213046F1
:101F8000FFF762FC0820009022890223412130469D
:101F9000FFF758FD08233A2251213046FFF754FC41
:101FA000082000906289022359213046FFF74AFD3C
:101FB0000B2201213846FFF717FC0C22112138466D
:101FC000FFF712FC08233A2221213846FFF73CFC98
:101FD000082000902A78022329213846FFF732FD95
:101FE00008233A2239213846FFF72EFC08200090BA
:101FF0006A78022341213846FFF724FD08233A225C
:1020000051213846FFF720FC08200090AA780223CF
:1020100059213846FFF716FDF8BD000034000020B6
:102020003500002010B500F001F810BD0CB50020FF
:10203000019000903348006840F4803031490860D6
:1020400000BF3048006800F4003000900198401C48
:102050000190009818B90198B0F5A06FF1D1294806
:10206000006800F4003010B10120009001E0002071
:1020700000900098012843D12348006840F01000E8
:10208000214908600846006820F0030008600846FF
:10209000006840F0020008601A484068194948602A
:1020A0000846406848600846406840F480604860E0
:1020B0000846406820F47C1048600846406840F4B8
:1020C000E81048600846006840F08070086000BF73
:1020D0000C48006800F000700028F9D009484068FA
:1020E00020F00300074948600846406840F00200BD
:1020F000486000BF0348406800F00C000828F9D190
:102100000CBD0000001002400020024008B5012173
:102110000820FFF763FD14208DF8030003208DF8DD
:1021200002004FF48070ADF8000069460A48FEF7DF
:1021300093FE4FF40070ADF8000069460648FEF7C4
:102140008BFE012211020448FEF71EFF01225102FC
:102150000148FEF719FF08BD000C014010B501222F
:1021600051020A48FEF710FF012211020748FEF74C
:102170000BFF00224FF400710448FEF705FF002218
:102180004FF480710148FEF7FFFE10BD000C0140C6
:1021900010B500224FF400710648FEF7F5FE01224B
:1021A00011020448FEF7F0FE012251020148FEF739
:1021B000EBFE10BD000C01407047000010B5134845
:1021C000006840F001001149086008464068104965
:1021D00008400E494860084600680E4908400B490F
:1021E00008600846006820F48020086008464068BF
:1021F00020F4FE0048604FF41F008860FFF712FFD4
:102200004FF000600449086010BD0000001002405B
:102210000000FFF8FFFFF6FE08ED00E021B10288A4
:1022200042F00102028004E002884FF6FE731A4079
:102230000280704701894FF6F872114001817047A2
:1022400070B5002400220023058C4FF6EF76354050
:102250000584028C8388048B48F6FF752C404FF66A
:10226000FF452C400D884FF6FF7606EA05252C43E6
:102270004FF6DF752A400D8906EA05152A434D8879
:1022800006EA05152A43154DA84202D0144DA8426E
:102290001DD14FF67F752A404D894FF6FF7606EA2D
:1022A00005152A434FF6BF752A408D8806EA0515A5
:1022B0002A434FF6FF352B404FF2FF752B408D8997
:1022C00006EA85052B43CD8906EA85052B438380E5
:1022D0000483CD880587028470BD0000002C014076
:1022E000003401400021018041808180C180018152
:1022F00041818181C1817047018770470022028836
:102300001D4B98420ED01D4B98420BD0B0F1804F20
:1023100008D01B4B984205D01A4B984202D01A4B5A
:10232000984204D14FF68F731A404B881A43174BCB
:10233000984207D0164B984204D04FF6FF431A40FC
:10234000CB881A4302808B8883850B8803850A4BD0
:1023500098420BD0094B984208D00E4B984205D0BA
:102360000D4B984202D00D4B984201D10B7A038657
:102370000123838270470000002C0140003401409B
:102380000004004000080040000C00400010004025
:10239000001400400040014000440140004801405A
:1023A00010B540F22551194800F04FF860B31748B6
:1023B00000F006F9C1B2164802780078401C144BB0
:1023C00018701448815418460078801E1149085C22
:1023D0000D2801D1012000E000200D490978491E97
:1023E0000C4A515C0A2901D1012100E00021084377
:1023F00050B1002106480078801E064A1154002082
:1024000003490870FEF7FCF910BD000000380140D8
:10241000200000204800002021B1828942F40052AF
:10242000828104E082894DF6FF731A4082817047F1
:1024300002460020B1F5007F00D100BF13880B4099
:102440000BB1012000E00020704770B50246002467
:1024500000230025002040F66A16B14200D100BFDB
:10246000C1F3421501F01F03012606FA03F3012D03
:1024700002D19689334006E0022D02D1168A3340FC
:1024800001E0968A33400C12012606FA04F41688FD
:10249000344013B10CB1012000E0002070BDF0B554
:1024A0000346002400260025002040F66A17B942A2
:1024B00000D100BF1846C1F3421401F01F060127E6
:1024C00007FA06F5012C01D10C3004E0022C01D1F1
:1024D000103000E014301AB107682F43076002E0A3
:1024E0000768AF430760F0BD2DE9F04786B00546A9
:1024F0000E460024A24600BFA1460027B08900B1C5
:1025000000BF2F462C8A4CF6FF700440F08804432D
:102510002C82AC894EF6F3100440B0883189084310
:10252000718908430443AC81AC8A4FF6FF400440F4
:10253000B0890443AC8201A8FFF760FB1F488742C3
:1025400002D1DDF810A001E0DDF80CA0A88900F4AC
:10255000004040B10AEBCA0000EB0A1031684900A4
:10256000B0FBF1F807E00AEBCA0000EB0A10316893
:102570008900B0FBF1F86420B8FBF0F004012009F9
:10258000642101FB1089A88900F4004040B1322089
:1025900000EBC900B0FBF1F000F00700044308E0D5
:1025A000322000EB09106421B0FBF1F000F00F00C5
:1025B00004432C8106B0BDE8F087000000380140DC
:1025C00001468888C0F308007047C1F30802828082
:1025D000704700BFFEE700000FB4054B10B503A91C
:1025E000044A029800F018F810BC5DF814FB0000D3
:1025F000C92900083800002002E008C8121F08C1DD
:10260000002AFAD170477047002001E001C1121F73
:10261000002AFBD1704700002DE9FF4F8BB09A468E
:102620000F460546002606E025280BD052460D9998
:1026300090476D1C761C28780028F5D10FB03046E5
:10264000BDE8F08F0024A0460122604900E0044369
:1026500015F8013F203B02FA03F00842F7D1287831
:102660002E2817D115F8010F44F004042A280ED0A3
:102670006FF02F022878A0F1300109290AD808EB61
:10268000880102EB410100EB01086D1CF2E757F8ED
:10269000048B6D1C287869283ED006DC0028CDD03C
:1026A00063280BD0642804D136E0732810D0752835
:1026B0004BD052460D999047761C85E017F8040BD5
:1026C0008DF8000000208DF80100E946012003E0AC
:1026D00057F8049B4FF0FF3061074FF0000401D41E
:1026E0000AE0641C44450DDA8442FADB19F8041050
:1026F0000029F6D106E0641C8442FCDB19F80410C2
:102700000029F8D1264404E019F8010B52460D992E
:102710009047641EF8D257E001CF4FF00A0B002813
:1027200002DA40422D2102E0210504D52B218DF84B
:102730002410012103E0E10705D02021F7E70DF186
:10274000200908910CE00021F9E701CF4FF00A0BB6
:10275000F9E75946FDF70EFF01F1300209F8012DA6
:102760000028F6D1ADEB090000F1200B600701D481
:102770004FF00108D84502DDA8EB0B0000E0002077
:102780008046002406E009A85246005D0D99904756
:10279000641C761C08988442F5DB04E03020524625
:1027A0000D999047761CB8F10001A8F10108F5DCFD
:1027B00005E019F8010B52460D999047761CBBF1C4
:1027C0000001ABF1010BF4DC6D1C34E709280100BA
:1027D00010B5FA214C48FDF714FD4CA0FFF7FCFEA4
:1027E0004FF4FA60FEF7B5F9FA214748FDF709FD05
:1027F00049A0FFF7F1FE0A20FEF7ABF948A14248D5
:10280000FDF70AFD08B1012010BD46A0FFF7E4FE68
:102810004FF4FA70FEF79DF941A13B48FDF7FCFC2F
:1028200008B10220F0E7FA213748FDF7EAFC4148F9
:1028300002684148016841A0FFF7CEFE4FF4FA60FC
:10284000FEF787F936A13048FDF7E6FC08B1032012
:10285000DAE7FA212C48FDF7D4FC3EA0FFF7BCFED6
:10286000C820FEF776F92EA12748FDF7D5FC08B160
:102870000420C9E7FA212448FDF7C3FC3F48FFF7CD
:10288000ABFE4FF47A70FEF764F925A11E48FDF700
:10289000C3FC08B10520B7E7FA211B48FDF7B1FCDE
:1028A00037A0FFF799FEC820FEF753F91CA1164880
:1028B000FDF7B2FC08B10620A6E7FA211248FDF7A1
:1028C000A0FC3F48FFF788FE40F2DC50FEF741F9DC
:1028D00013A10D48FDF7A0FC08B1072094E7394883
:1028E000FFF77AFE4FF47A70FEF733F90CA1064831
:1028F000FDF792FC08B1082086E7FA210248FDF7AF
:1029000080FC002080E700004800002041542B524A
:1029100053540D0A00000000415445300D0A0000D8
:102920004F4B000041542B43574D4F44453D330D11
:102930000A0000001C0000201800002041542B4316
:10294000574A41503D222573222C222573220D0A1D
:102950000000000041542B434950534E545043460D
:10296000473D312C382C226E7470312E616C6979A0
:10297000756E2E636F6D220D0A000000BC3B0008CF
:1029800041542B4D515454434C49454E5449443DB8
:10299000302C22313233347C7365637572656D6F10
:1029A00064653D335C2C7369676E6D6574686F6434
:1029B0003D686D6163736861317C220D0A0000001F
:1029C000203D0008C03D000870B504460D46E1B248
:1029D0000548FFF7FAFD00BF40210348FFF728FD37
:1029E0000028F9D0204670BD0038014008B5FEF738
:1029F00088FEFEF771FE142201210846FEF7F4FE60
:102A0000152211210120FEF7EFFE182221210120BD
:102A1000FEF7EAFE192231210120FEF7E5FE082328
:102A2000FCA241210120FFF734F8FEF7DFFAFDF7A1
:102A300091FFFEF7ADFDFEF7C9FCFEF751FDFFF774
:102A400044FA0020FFF746FA1A2221210120FEF75E
:102A5000CBFE1B2231210120FEF7C6FE0823EFA288
:102A600001210320FFF715F80127B84600BF082011
:102A700001234246312100900320FEF7E3FFFFF7D8
:102A8000A7FE0746082001233A4621210090032093
:102A9000FEF7D8FF4046411C01F0FF0803280ADB7F
:102AA0000823E0A221210320FEF7F3FF4FF4FA7080
:102AB000FEF74FF801E0002FD9D100BF1FB1012070
:102AC000DA49087002E00020D849087074E2D8485A
:102AD000007805281EDDD5480078D8B900210120EE
:102AE000FFF79AF9D3480068FDF7FFFCC6B2D24B56
:102AF000D24802783146D2480078FEF75DF910B12D
:102B00000120CA4908700020C949087001210846FF
:102B1000FFF782F9C9480078312831D1C9480078D7
:102B200068B300210120FFF777F900210220FFF7A9
:102B300073F9C3480078401CC1490870C248007846
:102B40000090BA480378C1480278BB49BD48007874
:102B5000FEF7BAFABE48FFF7BDF90220FEF705F806
:102B60000020FFF7B7F90120FDF7FFFF0020B5496E
:102B70000870FEF7B5FC01210846FFF74DF902E0A9
:102B80000020B04908700221B248FEF7F0F938B9C8
:102B90000120AE49087000210220FFF73DF90AE04C
:102BA000AA48007820B1FEF79BFC0020A4490870D9
:102BB0000020A6490870A848007809287ED2DFE8DE
:102BC00000F07DFBFA7D6D05A07DD000FEF784FD51
:102BD000A248007818BB00210220FFF71DF9FEF77C
:102BE00059FC0446E08842F210714843218901EB08
:102BF000C10202EB011100EB8100618900EB0109C8
:102C00008D4D01209649087070209649087029461C
:102C10002046FFF77DF90120904908703AE0E088EE
:102C200042F210714843218901EBC10202EB01110C
:102C300000EB810061890844484502D02046FEF738
:102C400089FC4FF0000A00260EE0A85D7A498855FD
:102C50000A46915D0AF10800FDF7C2FD701CC6B27C
:102C60000AF1040000F0FF0A022EEEDDFEF738FC48
:102C70000020744908707448007800906B4803780D
:102C8000724802786C496F480078FEF71DFA002000
:102C9000724908700020704908708BE16F48007815
:102CA00000B3FEF719FD6E480078012807D1032014
:102CB0006B49087059206B4908701EE065E168484F
:102CC0000078032803D06648007807280BD16548B0
:102CD00000781838634908700846007829280CDC09
:102CE0002920087009E05E480078052805D10720F2
:102CF0005B49087059205B490870002056490870EC
:102D000058E15648007840B3FEF7E6FC5448007896
:102D100003280FD1534800781830524908700846EC
:102D20000078612819DD01204D49087070204D4957
:102D3000087012E04A48007807280ED14948007808
:102D400018304849087008460078612805DD0520DC
:102D50004349087070204349087000203E490870BC
:102D600028E13E480078002808D0FEF7B5FC3D4831
:102D70000078702803D101203949087083E0384871
:102D80000078032829D137480078592808D160896C
:102D90003B2803DA6089401C608101E000206081EB
:102DA0003048007841280AD120893B2805DA20895B
:102DB000401C208103E06AE0D1E000202081294806
:102DC000007829285FD1E088172803DAE088401CC2
:102DD000E08058E00020E08055E021480078072896
:102DE00051D120480078592808D1A8783B2803DA27
:102DF000A878401CA87001E00020A870194800784D
:102E0000412833D168783B282EDA6878401C6870F6
:102E10002CE000002E2E2E20202000006C6F673A40
:102E20002D00000054696D654F7574002600002068
:102E300036000020300000202A0000202900002059
:102E40002D00002028000020270000202500002061
:102E500000003443000C0140140000202400002036
:102E600034000020350000200020687053480078AE
:102E7000292808D12878172803DA2878401C2870D8
:102E800001E00020287000204D49087092E04D4874
:102E9000007888B3FEF720FC48480078702803D1FA
:102EA00005204949087056E047480078032827D193
:102EB00042480078592808D16089002803DD6089DC
:102EC000401E608101E03B2060813C480078412841
:102ED00008D12089002803DD2089401E208101E0DF
:102EE0003B20208135480078292834D1E08800280B
:102EF00003DDE088401EE0802DE01720E0802AE01E
:102F000031480078072826D12C480078592808D164
:102F1000A878002803DDA878401EA87001E03B20B7
:102F2000A87026480078412808D16878002803DD79
:102F30006878401E687001E03B2068701F48007888
:102F4000292808D12878002803DD2878401E287019
:102F500001E0172028700020194908702AE0FEF7C8
:102F6000BBFBFEF7BDFA19480078009018480378BB
:102F700018480278184919480078FEF7A5F800208B
:102F8000104908700E49087014E00E48007860B9C6
:102F90000E48007800900E4803780E4802780E49DB
:102FA0000E480078FEF790F803E029462046FEF729
:102FB000AFFF00BF00BF00BF89E500003500002063
:102FC00014000020240000203400002027000020EE
:102FD00026000020250000202A00002028000020D4
:102FE000E8070100010000000000000000000000F0
:102FF00000000000002F0000000007000700001480
:103000007F147F1400242A7F2A120062640813238D
:1030100000364955225000000503000000001C2224
:103020004100000041221C000014083E0814000862
:10303000083E0808000000A0600000080808080812
:10304000000060600000002010080402003E5149AA
:10305000453E0000427F4000004261514946002148
:1030600041454B31001814127F1000274545453962
:10307000003C4A49493000017109050300364949BD
:10308000493600064949291E000036360000000076
:1030900056360000000814224100001414141414C1
:1030A000000041221408000201510906003249596A
:1030B000513E007C1211127C007F49494936003E86
:1030C00041414122007F4141221C007F4949494141
:1030D000007F09090901003E4149497A007F08083B
:1030E000087F0000417F4100002040413F01007FF8
:1030F00008142241007F40404040007F020C027FC4
:10310000007F0408107F003E4141413E007F0909D5
:103110000906003E4151215E007F091929460046FB
:10312000494949310001017F0101003F4040403FD2
:10313000001F2040201F003F4038403F006314081C
:1031400014630007087008070061514945430000F7
:103150007F41410000552A552A55000041417F001A
:10316000000402010204004040404040000001020F
:103170000400002054545478007F484444380038F8
:103180004444442000384444487F00385454541880
:1031900000087E0901020018A4A4A47C007F080492
:1031A00004780000447D4000004080847D00007F62
:1031B000102844000000417F4000007C041804787F
:1031C000007C0804047800384444443800FC24247B
:1031D00024180018242418FC007C08040408004863
:1031E0005454542000043F444020003C4040207C84
:1031F000001C2040201C003C4030403C0044281073
:103200002844001CA0A0A07C004464544C44141426
:10321000141414140000000000000000000000005E
:1032200000000000000000F8000000000000003373
:103230003000000000100C06100C0600000000001A
:103240000000000040C07840C0784000043F040403
:103250003F040400007088FC08300000001820FFC4
:10326000211E0000F008F000E018000000211C03FF
:103270001E211E0000F00888700000001E2123247B
:103280001927211010160E00000000000000000099
:1032900000000000000000E0180402000000000729
:1032A0001820400000020418E00000000040201830
:1032B00007000000404080F0804040000202010F03
:1032C00001020200000000F0000000000101011FE7
:1032D00001010100000000000000000080B070004B
:1032E00000000000000000000000000000010101DB
:1032F000010101010000000000000000003030006A
:103300000000000000000000806018040060180643
:103310000100000000E010088870E000000F18268F
:1033200021100F0000001010F80000000000202005
:103330003F202000007008080808F0000030282412
:103340002221300000300808088870000018202171
:1033500021221C000000804030F8000000060524F7
:10336000243F242400F888888808080000192020B9
:1033700020110E0000E0108888900000000F11203E
:1033800020201F0000180808886818000000003E70
:10339000010000000070880808887000001C2221CD
:1033A00021221C0000F008080810E0000001122291
:1033B00022110F00000000C0C0000000000000301B
:1033C000300000000000008000000000000080606D
:1033D00000000000000080402010080000010204EE
:1033E00008102000404040404040400004040404D5
:1033F0000404040000081020408000000020100891
:1034000004020100007048080808F00000000030C5
:1034100036010000C030C828E810E0000718272453
:1034200023140B000000C038E0000000203C230201
:103430000227382008F8888888700000203F202064
:1034400020110E00C0300808080838000718202096
:103450002010080008F808080810E000203F20208D
:1034600020100F0008F88888E8081000203F20206E
:103470002320180008F88888E8081000203F200062
:1034800003000000C030080808380000071820209A
:10349000221E020008F808000008F808203F210159
:1034A00001213F20000808F8080800000020203F04
:1034B0002020000000000808F8080800C080808074
:1034C0007F00000008F888C028180800203F20016D
:1034D0002638200008F8080000000000203F2020C7
:1034E0002020300008F8F800F8F80800203F003FDE
:1034F000003F200008F830C00008F808203F2000F6
:1035000007183F00E01008080810E0000F10202006
:1035100020100F0008F808080808F000203F2101DB
:1035200001010000E01008080810E0000F18242432
:1035300038504F0008F8888888887000203F2000A5
:10354000030C30200070880808083800003820215B
:1035500021221C00180808F8080818000000203F65
:103560002000000008F808000008F808001F2020CC
:1035700020201F000878880000C83808000007389D
:103580000E010000F80800F80008F800033C0700EE
:10359000073C0300081868808068180820302C0356
:1035A000032C30200838C800C83808000000203F2D
:1035B0002000000010080808C8380800203826211C
:1035C00020201800000000FE020202000000007F20
:1035D00040404000000C30C000000000000000012E
:1035E0000638C00000020202FE0000000040404019
:1035F0007F0000000000040202020400000000003E
:1036000000000000000000000000000080808080BA
:1036100080808080000202040000000000000000A2
:10362000000000000000808080800000001924223B
:1036300022223F2008F8008080000000003F112077
:1036400020110E000000008080800000000E11207C
:1036500020201100000000808088F800000E11205A
:1036600020103F200000808080800000001F222268
:1036700022221300008080F0888888180020203FD4
:10368000202000000000808080808000006B9494E7
:103690009493600008F8008080800000203F2100A3
:1036A00000203F2000809898000000000020203F6C
:1036B00020200000000000809898000000C080805A
:1036C000807F000008F8000080808000203F2402F6
:1036D0002D302000000808F8000000000020203FE6
:1036E000202000008080808080808000203F20009B
:1036F0003F20003F8080008080800000203F21002C
:1037000000203F200000808080800000001F2020DB
:1037100020201F00808000808000000080FFA1200A
:1037200020110E000000008080808000000E11201B
:1037300020A0FF80808080008080800020203F21AA
:10374000200001000000808080808000003324245D
:1037500024241900008080E0808000000000001F09
:10376000202000008080000000808000001F2020BA
:1037700020103F20808080000080808000010E307B
:103780000806010080800080008080800F300C03DC
:103790000C300F0000808000808080000020312EDF
:1037A0000E312000808080000080808080818E70BB
:1037B0001806010000808080808080000021302C6D
:1037C0002221300000000000807C02020000000086
:1037D000003F404000000000FF000000000000002B
:1037E000FF0000000002027C800000000040403F1B
:1037F00000000000000601010202040400000000B5
:10380000000000001060028C0000FE9292929292E2
:10381000FE00000004047E01407E42427E427E4261
:10382000427E40000000FC242424FC252624FC24A5
:103830002424040040308F80844C55252525554C88
:1038400080808000060909E6F80C040202020202E8
:10385000041E0000000000071F3020404040404090
:1038600020100000008060F807404848E85F4848A2
:1038700048404000010000FF0000020B1222D20A63
:10388000060000000000FC04D4545454D4047F8487
:10389000C53604008866010063828292AB8482C1CF
:1038A0000224CF0080809E9292929EE0809EB2D2AF
:1038B000929E80000808F4949292F10001F2929492
:1038C00094F8080000FC2024A8FFA82400FC44442D
:1038D000C4424000003F2221202F20A3601F00008F
:1038E000FF00000080828282FE8282828282FE82CB
:1038F00082828000008040300F0000000000FF0046
:103900000000000000FC848484FC001010101010E3
:10391000FF101000003F1010103F00000106408013
:103920007F000000101010FF109040A09E82828245
:103930009EA020000444827F01008080432C102838
:10394000448380004030CF08281802FE2222222221
:10395000FE02020000007F201000101F111111094B
:10396000FF08080000F8010600F0121212F202022D
:1039700002FE000000FF0000001F1111111F004097
:10398000807F000000FE225A8600027A4A4A4A4A94
:103990004A7A020000FF04080700FF090B0D790DA9
:1039A0004B897F0040201088484424242424444824
:1039B000881020400000010004020231310202049C
:1039C0000001000040201088484424A4E4E47478F6
:1039D0009C1E2640006071381C0E07333102020421
:1039E00000010000404458C0FF504C0022CC0000B1
:1039F000FF00000010080601FF0106000404040493
:103A0000FF02020000020202028242F20E42820221
:103A10000202000010080402010000FF0000000183
:103A2000020C00000000007E424242C24242427E3E
:103A3000000000008040300E1020407F4444444489
:103A400044404000000000008060180707186080B4
:103A500000000000002038262120202020202021E6
:103A600026382000000000808040402020101008F0
:103A700008FC0000000101020204040808101020E4
:103A8000207F0000000202C2020202FE82828282C5
:103A9000820200004040407F4040407F4040404024
:103AA00040404000080888C8380C0B0808E808089F
:103AB00008080800020100FF40414141417F4141A7
:103AC00041414000404042CC0040404040FF404027
:103AD000404040000000007F2010000000FF000078
:103AE0000000000000020C80608040300FC8080811
:103AF0002818000002027E018040201806010618E6
:103B000020408000000000FC4444444546444444B6
:103B1000447C00004020180700FC444444444444D2
:103B200044FC00004044C4444444401010FF1010C2
:103B300010F00000103C131014B840300E0140800B
:103B4000403F0000F212FE12FE12F20084848484D0
:103B5000FC000000FF4A49484949FF003F404040FF
:103B60004140700000FE02224282720222428272B2
:103B700002FE000000FF100806010E100806014EAC
:103B8000807F000000001011161010F010101413A8
:103B9000100000008181414121110D030D112141CF
:103BA000418181001F1C1F1E1F1E1F1F1E1F1E1F65
:103BB0001F1D1F1E1F1E1F1F1E1F1E1F41542B4D8A
:103BC000515454555345524346473D302C312C22D5
:103BD0004E554C4C222C2274796D61313130266166
:103BE00031495A366E506B735369222C224241324E
:103BF00045434241323942304644443043344532F1
:103C00003434333939393230413535353144323451
:103C10004530443535222C302C302C22220D0A0020
:103C200041542B4D5154545055423D302C222F734A
:103C300079732F6131495A366E506B7353692F7403
:103C4000796D613131302F7468696E672F657665E3
:103C50006E742F70726F70657274792F706F7374D9
:103C6000222C227B5C226D6574686F645C223A5C56
:103C7000227468696E672E6576656E742E70726F39
:103C800070657274792E706F73745C225C2C5C2288
:103C9000706172616D735C223A7B5C22466565647B
:103CA00074696D65735C223A25645C2C5C225465F2
:103CB0006D70657261747572655C223A25645C2C66
:103CC0005C22466565645F45445C223A25645C2C51
:103CD0005C2246656564496E74657276616C5F68E6
:103CE0005C223A25645C2C5C2246656564496E74EE
:103CF000657276616C5F6D5C223A25645C2C5C2297
:103D000046656564496E74657276616C5F735C22AA
:103D10003A25647D7D222C302C300D0A00000000F5
:103D200041542B4D515454434F4E4E3D302C226143
:103D300031495A366E506B7353692E696F742D6119
:103D4000732D6D7174742E636E2D7368616E676868
:103D500061692E616C6979756E63732E636F6D2274
:103D60002C313838332C310D0A2B4D515454434FDC
:103D70004E4E45435445443A302C312C2261314952
:103D80005A366E506B7353692E696F742D61732DA3
:103D90006D7174742E636E2D7368616E67686169EE
:103DA0002E616C6979756E63732E636F6D222C22A0
:103DB00031383833222C22222C310D0A0000000029
:103DC00041542B4D5154545355423D302C222F73A6
:103DD00079732F6131495A366E506B7353692F7462
:103DE000796D613131302F7468696E672F73657238
:103DF000766963652F70726F70657274792F736561
:103E000074222C310D0A0000313233343536373804
:103E1000000000007669766F000000003C3E00085C
:103E2000000000203C000000F8250008783E000853
:103E30003C000020340500000826000800000000B7
:103E4000010203040102030406070809020406082C
:103E500000000000143E0008083E000800000000BA
:103E60000000000000310000000000000000000021
:083E700000000000000000004A
:04000005080000ED02
:00000001FF
