:020000040800F2
:10000000280700208901000841110008830B00081F
:10001000810F0008A10500089321000800000000DE
:10002000000000000000000000000000AD19000802
:10003000A107000800000000A9160008551D0008CF
:10004000A3010008A3010008A3010008A301000800
:10005000A3010008A3010008A3010008A3010008F0
:10006000A3010008A3010008A3010008A3010008E0
:10007000A3010008A3010008A3010008A3010008D0
:10008000A3010008A3010008A3010008A3010008C0
:10009000A3010008A3010008A3010008A9080008A3
:1000A000A3010008A3010008A3010008A3010008A0
:1000B000A3010008A3010008A3010008A301000890
:1000C000A3010008A3010008A3010008A301000880
:1000D000A30100083D1F0008A3010008A3010008B8
:1000E000010800084D180008A301000800F002F8FC
:1000F00000F03AF80AA090E8000C82448344AAF188
:100100000107DA4501D100F02FF8AFF2090EBAE885
:100110000F0013F0010F18BFFB1A43F0010318473B
:1001200098390000B8390000103A24BF78C878C167
:10013000FAD8520724BF30C830C144BF04680C60ED
:10014000704700000023002400250026103A28BF35
:1001500078C1FBD8520728BF30C148BF0B60704739
:100160001FB51FBD10B510BD00F0C3F91146FFF754
:10017000F7FF02F011F800F0E1F903B4FFF7F2FF26
:1001800003BC00F0E9F9000009488047094800472E
:10019000FEE7FEE7FEE7FEE7FEE7FEE7FEE7FEE737
:1001A000FEE7FEE704480549054A064B7047000094
:1001B000591D0008ED000008280100202807002034
:1001C000280300202803002010B5203AC0F00B803F
:1001D000B1E81850203AA0E81850B1E81850A0E84B
:1001E0001850BFF4F5AF5FEA027C24BFB1E81850A5
:1001F000A0E8185044BF18C918C0BDE810405FEA15
:10020000827C24BF51F8043B40F8043B08BF704790
:10021000D20728BF31F8023B48BF11F8012B28BF95
:1002200020F8023B48BF00F8012B7047014900F05D
:10023000DDB800009C00002010B503681C1404EB1E
:1002400021449BB289B2194494FBF2F302FB13439D
:1002500094FBF2F401EB034393FBF2F102FB113147
:1002600093FBF2F301E05B1E11440029FBDB01600C
:1002700003EB044010BDF0B504464FF0FF3585B0E8
:100280000068049060680290A0680390E0680190A4
:1002900020690090666906F18040B0F1004F7CD87B
:1002A0003C22002104A8FFF7C7FF3C22014602A818
:1002B000FFF7C2FF1822014603A8FFF7BDFF411E4A
:1002C00040F2B55201A8FFF7B7FF0C220746684677
:1002D0000021FFF7B1FF414B00EB870030440026BF
:1002E0007B4411E0511A01910099491C02290091A7
:1002F00002D00C2908D105E0810705D00199491CDD
:10030000019101E0401C00960099019A595C9142CC
:10031000E8DD0099012906D11C2A04D1810702D009
:100320000221CDE90016A0F146018B293CD2DDE97E
:100330000061002202E09F5C521C3944B242FADBA9
:10034000012E02DD820700D0491E40F2B55340F273
:100350006D16C21700EB927292105A4300F003031D
:1003600003FB062283070A4400D1521E039E02EBC0
:100370004203049F06EBC303029EC3EB031306EB89
:100380008303174E33441E149BB2C6EB0616C3EB11
:100390000313B60007EB830300E005E006EB13460A
:1003A00066F31F43360C02D0284605B0F0BD80C46A
:1003B000029E40C4039E40C4019E761C44F80C6B10
:1003C000009E44E902600720521C92FBF0F600FBFD
:1003D000162084E823001846E7E70000C83700002D
:1003E000A039CEFD704770477047000070B50C46CD
:1003F000016800204A1C3ED03C22B1FBF2F302FB14
:100400001313B1FBF2F12360B1FBF2F302FB131300
:10041000B1FBF2F118226360B1FBF2F302FB13139C
:10042000B1FBF2F146F2E0320A440721A360B2FBCD
:10043000F1F301FB132140F2B553B2FBF3F5A161D7
:10044000B2FBF3F103FB15228900B2F5B77F08D3A5
:100450009B10521EB2FBF3F52944B2FBF3F503FBEC
:1004600015220F4BE261616189077B440CD03B2A66
:100470000AD3521C08E02C21204600F013F801207A
:10048000E0600AE0521A401C195C9142FAD9521CF1
:10049000C4E903204FF0FF302062204670BD000009
:1004A0003E3600004FF0000200B5134694469646D3
:1004B000203922BFA0E80C50A0E80C50B1F1200177
:1004C000BFF4F7AF090728BFA0E80C5048BF0CC025
:1004D0005DF804EB890028BF40F8042B08BF704783
:1004E00048BF20F8022B11F0804F18BF00F8012BF5
:1004F0007047754600F02CF8AE4605006946534635
:1005000020F00700854618B020B5FFF74BFEBDE888
:1005100020404FF000064FF000074FF000084FF06A
:10052000000B21F00701AC46ACE8C009ACE8C009FB
:10053000ACE8C009ACE8C0098D46704710B5044668
:10054000AFF300802046BDE81040FFF716BE000064
:1005500000487047C800002001491820ABBEFEE7E4
:10056000260002007047000008B5014600200090F8
:10057000034800900098084400900098008808BD47
:10058000006C004008B500220092044A0092009AD4
:1005900002440092009A116008BD0000006C004007
:1005A00000BFFEE708B50121082001F08FF81020F8
:1005B0008DF803000120ADF8000003208DF8020043
:1005C0006946024800F040FA08BD0000000C0140F6
:1005D00008B548208DF803000120ADF800006946F9
:1005E000014800F031FA08BD000C014008B51020A8
:1005F0008DF803000120ADF8000003208DF8020003
:100600006946024800F020FA08BD0000000C0140D5
:1006100070B5002400251EE06410FFF7E7FF0121FC
:100620000F4800F0A5FA022000F0D3F801210C4891
:1006300000F0A0FA022000F0CCF8FFF7C9FF01217A
:10064000074800F08CFA08B144F080043C2000F028
:10065000C0F8681CC5B2082DDEDB204670BD000066
:10066000000C01402DE9F84F00200090824600F078
:100670003FF8CC2000F06CF8442000F069F840F21C
:10068000EE2000F08EF800F033F8CC2000F060F897
:10069000BE2000F05DF8FFF7BBFF8346FFF7B8FF11
:1006A00081464C464FF6FF7000EA042444EA0B04EE
:1006B00004F47840B0F5784F04D1E043401C84B294
:1006C00001200090204602F038F807460022074B30
:1006D00002F046F8054601F0FFFF8246009808B197
:1006E0008AF0004A5046BDE8F88F00000000B03F95
:1006F00010B50124FFF77AFF0121144800F03AFAFF
:10070000052000F066F80121104800F031FA4FF49E
:10071000F07000F05EF801210C4800F02BFA3C204C
:1007200000F057F8FFF754FF0121084800F017FACE
:1007300004464FF4F07000F04CF8FFF757FF01212A
:10074000024800F017FA204610BD0000000C0140DE
:1007500070B5044600251EE0FFF748FF01210F4851
:1007600000F006FA022000F034F804F0010020B195
:1007700001210A4800F0FEF903E00121074800F0DA
:10078000F7F93C2000F025F80121044800F0F2F9C7
:100790006410681CC5B2082DDEDB70BD000C014082
:1007A000704700B5034603E04FF47A7000F011F88B
:1007B000181EA3F10103F7D100BD10B5044603E0F4
:1007C0004FF47A70FFF7EDFF201EA4F10104F7D17A
:1007D00010BD00EBC001C9004FF0E02251610021C3
:1007E00091610521116100BF4FF0E021096901F419
:1007F00080310029F8D004214FF0E02211617047C8
:1008000010B54FF4806000F0A1F8012813D18102E7
:10081000234800F0A4F950B900BF4FF4806120488C
:1008200000F09DF90028F8D008201E4908704FF408
:10083000806000F085F84FF4006000F087F8012830
:1008400013D1C102164800F08AF950B900BF4FF425
:100850000061134800F083F90028F8D00220114904
:1008600008704FF4006000F06BF84FF4805000F017
:100870006DF8012813D10103094800F070F950B94F
:1008800000BF4FF48051064800F069F90028F8D005
:100890000120044908704FF4805000F051F810BD59
:1008A000000C01401400002010B5202000F04EF88C
:1008B000012811D12021204800F051F948B900BF8A
:1008C00020211D4800F04BF90028F9D005201B49D4
:1008D0000870202000F034F8402000F037F801289C
:1008E00011D14021144800F03AF948B900BF402125
:1008F000114800F034F90028F9D004200F4908709D
:10090000402000F01DF8802000F020F8012811D1CF
:100910008021094800F023F948B900BF802106482A
:1009200000F01DF90028F9D0062004490870802045
:1009300000F006F810BD0000000C0140140000207B
:10094000014908607047000014040140014600207E
:100950000022074B1B6803EA0102054B14331B6896
:100960000B4013B10AB1012000E0002070470000E5
:1009700000040140002123498279002A3AD00A4626
:10098000126803689A430B461A600A1D12680368CE
:100990009A430B1D1A60027911440A6803681A43CE
:1009A0000A60184A0832126803689A43154B0833E4
:1009B0001A601A1D126803689A43124B0C331A60AE
:1009C0004279102A0ED11A1F126803681A430D4B80
:1009D00008331A601A1D126803681A43094B0C3356
:1009E0001A600DE00749427911440A6803681A4306
:1009F0000A6005E0027911440A6803689A430A60B4
:100A0000704700000004014030B500228B071C0F26
:100A10000F2303FA04F20B4B8C1053F8243093434A
:100A2000084C8D1044F8253023468C1053F82430A0
:100A30008C07240F00FA04F42343024C8D1044F871
:100A4000253030BD080001402DE9F0410246002567
:100A50000026002000230024002791F803C00CF09A
:100A60000F0591F803C00CF0100CBCF1000F03D07F
:100A700091F802C04CEA050591F800C0BCF1000FE6
:100A800031D0146800202BE04FF0010C0CFA00F379
:100A9000B1F800C00CEA03069E4220D183004FF05B
:100AA0000F0C0CFA03F7BC4305FA03FC4CEA0404F0
:100AB00091F803C0BCF1280F06D14FF0010C0CFADD
:100AC00000FCC2F814C00AE091F803C0BCF1480F62
:100AD00005D14FF0010C0CFA00FCC2F810C0401C0C
:100AE0000828D1D31460B1F800C0BCF1FF0F34DD89
:100AF000546800202EE000F1080C4FF0010808FABD
:100B00000CF3B1F800C00CEA03069E4221D1830029
:100B10004FF00F0C0CFA03F7BC4305FA03FC4CEA48
:100B2000040491F803C0BCF1280F05D100F1080CB2
:100B300008FA0CF8C2F8148091F803C0BCF1480F11
:100B400007D100F1080C4FF0010808FA0CF8C2F8C0
:100B50001080401C0828CED35460BDE8F0810246C6
:100B6000002093680B400BB1012000E0002070478B
:100B700041617047016170470AB1016100E0416164
:100B8000704700BFFEE7000070B50546002415E081
:100B90008020204100EA05024FF400710E48FFF763
:100BA000EBFF012211020C48FFF7E6FF00224FF491
:100BB00080710948FFF7E0FF601CC4B2082CE7DB36
:100BC000012211020448FFF7D7FF00224FF4807181
:100BD0000148FFF7D1FF70BD000C01401FB5012196
:100BE000082000F073FD0121084600F06FFD482049
:100BF0008DF80F004FF4E750ADF80C0003208DF88E
:100C00000E0003A92B48FFF71FFF04208DF80F00EB
:100C10000220ADF80C0003208DF80E0003A9254832
:100C2000FFF712FF05210120FFF7EEFE062101204C
:100C3000FFF7EAFE07210120FFF7E6FE0A21012067
:100C4000FFF7E2FE0B210120FFF7DEFE0C21012061
:100C5000FFF7DAFE4FF4E750019001208DF80A000B
:100C600000208DF808000C208DF8090001A8FFF77E
:100C700081FE4FF4A06000F09DFA17208DF800006F
:100C800001208DF803008DF801008DF80200684600
:100C900000F058FA28208DF8000001208DF803009C
:100CA0008DF8010002208DF80200684600F04AFA33
:100CB0001FBD0000000C01402DE9F04F85B0064635
:100CC0000C4617469846DDF838904FF0010A4FF071
:100CD000030B0520049007200390002E37D100F06D
:100CE000B1F9054608220121504600F0F5FA0B2221
:100CF0001121504600F0F0FA08233A2221215046F3
:100D000000F01AFB08200090EA88022329215046AF
:100D100000F010FC08233A223921504600F00CFB69
:100D2000082000902A8902234121504600F002FC4D
:100D300008233A225121504600F0FEFA0820009084
:100D40006A8902235921504600F0F4FB19E014226D
:100D50000121084600F0C0FA15221121012000F0FF
:100D6000BBFA09222121012000F0B6FA0A22312122
:100D7000012000F0B1FA08237CA24121012000F0FB
:100D800000FC0B220121584600F0A6FA0C2211218A
:100D9000584600F0A1FA08233A222121584600F0D3
:100DA000CBFA08200090227802232921584600F02F
:100DB000C1FB08233A223921584600F0BDFA082029
:100DC0000090627802234121584600F0B3FB0823CB
:100DD0003A225121584600F0AFFA08200090A2783C
:100DE00002235921584600F0A5FB4FB30A220121E6
:100DF000039800F071FA0F221121039800F06CFAA9
:100E000010222121039800F067FA11223121039862
:100E100000F062FA082328224121039800F08CFA9E
:100E2000082003230090534802784921039800F0DA
:100E300081FB082329226121039800F07DFA1EE03E
:100E400016220121039800F047FA17221121039876
:100E500000F042FA08233A222121039800F06CFAAC
:100E6000082003230090434802782921039800F0CA
:100E700061FB082340A24121039800F082FBB8F1F6
:100E8000000F05D00D227021072000F025FA04E0A4
:100E90000E227021072000F01FFAB9F1000F62D175
:100EA000FFF726FC00283BD1FFF7DCFB0290002275
:100EB0000121049800F010FA01221121049800F099
:100EC0000BFA02222121049800F006FA08233A22A4
:100ED0003121049800F030FA082325A261210498FA
:100EE00000F04FFB0021029801F09CFF0AD8082077
:100EF00001210323CDE900103921029A049800F062
:100F00006BFA09E0082001210223CDE90010392104
:100F1000029A049800F060FA0520FFF742FC22E0F4
:100F200000220121049800F0D7F901221121049830
:100F300000F0D2F903222121049800F0CDF9042217
:100F40003121049800F0C8F905224121049800F0ED
:100F5000C3F906225121049800F0BEF9072261214D
:100F6000049800F0B9F905B0BDE8F08F2E2E2E20C0
:100F70002020000029000020202020202000000048
:100F800000BFFEE700B587B00121080700F08EFB27
:100F90000121C80600F08AFB012000F07FFB04203D
:100FA000FFF7E2FA4FF6FE61884225D0244A07CACD
:100FB00001AB07C3012000F021FC00BF412000F07D
:100FC000FFFB0128FAD1000200F038FC012000F0FC
:100FD0002FFC00F0D9FC00F0CDFC47F6FF7000F0CC
:100FE000B9FC00F0C7FC01A800F08CF84FF6FE61D8
:100FF0000420FFF7C7FA03E000F0C6FC00F0BAFCDB
:101000004FF40030059001208DF81A0000208DF873
:1010100018000C208DF8190005A8FFF7ABFC29205B
:101020008DF8100001208DF8110000208DF81200BD
:1010300001208DF8130004A800F084F807B000BD6B
:10104000882F000810B58CB000F03CFC00F5E140A2
:101050000B900BA8FFF7EAF804462C2221466846BD
:10106000FFF7B2F8059800F26C7008490880049800
:10107000401C4880039888800298C88001980881A5
:101080000098488108460CB010BD00002C000020DC
:1010900070B50820FFF768FA194908700C20FFF7AF
:1010A00063FA174948701020FFF75EFA14498870F8
:1010B00008460078C0EB00108000C0EB00108000F4
:1010C0004978C1EB011100EB81000D498978084492
:1010D000441E84B10121022000F010FC00F0DEFB70
:1010E00000F0F0FB0519284600F018FC00F042FC67
:1010F00000F0DEFB03E00021022000F0FFFB70BDEA
:101100002000002030B58BB004462088A0F26C701F
:1011100005906088401E0490A0880390E0880290AB
:1011200020890190608900906846FFF7A4F8A0F537
:10113000E145284600F000FC00F01CFC0BB030BD7F
:101140007047000070B5002100230F22C47804B35B
:10115000154C246804F4E064C4F5E064210AC1F18C
:101160000403CA40447804FA03F18478144021430C
:1011700009010E4C0678A155047804F01F050124DE
:10118000AC4005786D11AD0005F1E025C5F80041D2
:1011900009E0047804F01F050124AC40044D0678F2
:1011A000761145F8264070BD0CED00E000E400E04B
:1011B00080E100E002490143024A116070470000EB
:1011C0000000FA050CED00E070B500240EE00021EF
:1011D000204600F06FF8002504E0002000F0F9F947
:1011E000681CC5B2802DF8DB601CC4B2082CEEDB95
:1011F00070BD70B5002406E0002500E06D1CB5F55B
:101200007A7FFBD3641CB4F57A7FF5D300F04CFDF4
:10121000AE2000F0CEF9D52000F0CBF9802000F010
:10122000C8F9A82000F0C5F93F2000F0C2F9D3208A
:1012300000F0BFF9002000F0BCF9402000F0B9F93F
:10124000A12000F0B6F9C82000F0B3F9DA2000F0D0
:10125000B0F9122000F0ADF9812000F0AAF9CF20FA
:1012600000F0A7F9D92000F0A4F9F12000F0A1F9CD
:10127000DB2000F09EF9302000F09BF9A42000F064
:1012800098F9A62000F095F98D2000F092F914202D
:1012900000F08FF9AF2000F08CF9FFF795FF70BDDB
:1012A00010B50246012000E050430B1EA1F10101E0
:1012B000FAD110BD70B505460C4645F0B00000F0FF
:1012C00078F9102141EA141000F073F904F00F00CE
:1012D00000F06FF970BD00002DE9F04105460E46A3
:1012E00017464FF01008721ED1B26A1ED0B2FFF737
:1012F000E1FF002407E00F4901EB4711085D00F012
:1013000068F9601CC4B24445F5DB721ED1B2E8B284
:10131000FFF7D0FF002409E0064901EB471104EB79
:101320000802885C00F055F9601CC4B24445F3DB48
:10133000BDE8F081AC3700082DE9F04105460E46C6
:1013400017469846B8F1080F29D1721ED1B26A1E0D
:10135000D0B2FFF7AFFF002409E0A7F120011C4A3B
:1013600002EB0111085D00F034F9601CC4B2082CD6
:10137000F3DB721ED1B2E8B2FFF79CFF00240BE052
:10138000A7F12001124A02EB011204F10801505C9E
:1013900000F01FF9601CC4B2082CF1DB15E0721ECE
:1013A000D1B26A1ED0B2FFF785FF00240BE0A7F18F
:1013B000200101EB4101074A02EB4101085D00F009
:1013C00008F9601CC4B2062CF1DBBDE8F081000016
:1013D000BC310008942F00082DE9FF4F85B00E4660
:1013E00091461F46DDE912A40021484601F01AFC8F
:1013F00053D289F0004923462D2231460598FFF744
:101400009BFF484601F0DAFB83463019C1B23B46E8
:101410005A460094059800F08DF8BAF1000F08DDE7
:10142000781C04FB0060C1B2234641A2059800F07D
:10143000A8F802254FF00A082AE0404601F0DEFB3A
:101440000290484601F0BAFB009001F0D7FB4946F4
:10145000019001F018FD8346029901F017FC0390FA
:1014600001F0ACFB0A21B0FBF1F201FB1200009489
:101470000490781904FB0060C1B20123DDE9042067
:1014800000F058F8681CC5B208EB88004FEA400825
:101490000AF101008542D0DD46E0484601F08EFBAE
:1014A00083463B465A4631460094059800F042F880
:1014B000BAF1000F07DD07FB0460C1B223461CA28E
:1014C000059800F05EF801254FF00A082AE0404632
:1014D00001F094FB0290484601F070FB009001F08F
:1014E0008DFB8346494601F0CEFC0190029901F044
:1014F000CDFB039001F062FB0A21B0FBF1F201FB8E
:10150000120000940490781904FB0060C1B201231A
:10151000DDE9042000F00EF8681CC5B208EB880075
:101520004FEA40085545D2DD09B0BDE8F08F000014
:101530002E0000002DE9F04781460E4617461D4655
:10154000DDF82080002418E0281B411E0A20FFF748
:10155000A7FEB7FBF0F00A21B0FBF1F201FB12008D
:1015600030304FFA80FA08FB0460C1B2434652465D
:101570004846FFF7E1FE601CC4B2AC42E4DBBDE8C4
:10158000F0872DE9F04180460E4615461F4600249F
:101590000AE0285D42B207FB0460C1B23B46404608
:1015A000FFF7CAFE601CC4B2285D0028F1D1BDE877
:1015B000F08110B5044600F09FFB7820FFF7E4FAB5
:1015C0000020FFF7E1FA2046FFF7DEFA00F0AEFB5D
:1015D00010BD10B5044600F08FFB7820FFF7D4FA59
:1015E0004020FFF7D1FA2046FFF7CEFA00F09EFB2D
:1015F00010BD000000B589B00121084600F056F882
:101600000121042000F062F818208DF82300022048
:10161000ADF8200003208DF8220008A91A48FFF732
:1016200013FA4FF0804000F0D3FB0020ADF81A0011
:10163000ADF8160044F61F60ADF818004720ADF86D
:10164000140000208DF81C0005A94FF0804000F028
:1016500023FC01A800F014FC6020ADF80400002079
:10166000ADF80C000120ADF806000020ADF80A002E
:1016700001A94FF0804000F0B1FB0121880700F084
:101680009BFB09B000BD00000008014010B50446F6
:1016900021464FF0804000F0FDFB10BD014908627B
:1016A0007047000000000E427047000029B1064A52
:1016B000D2690243044BDA6104E0034AD2698243EF
:1016C000014BDA61704700000010024029B1064A60
:1016D00092690243044B9A6104E0034A926982438F
:1016E000014B9A61704700000010024030B50021A4
:1016F0000022002400232D4D6D6805F00C0121B15E
:10170000042905D0082923D105E0294D056022E0F0
:10171000274D05601FE0254D6D6805F47012234DBF
:101720006D6805F48034022505EB92421CB9214D09
:10173000554305600BE01D4D6D6805F400351DB186
:101740001C4D5543056002E0194D5543056002E00C
:10175000174D056000BF00BF144D6D6805F0F00126
:101760000909154D6B5C0568DD4045600F4D6D68DE
:1017700005F4E061090A104D6B5C4568DD40856049
:101780000A4D6D6805F46051C90A0B4D6B5C4568E4
:10179000DD40C560054D6D6805F44041890B074D7E
:1017A0006B5CC568B5FBF3F5056130BD0010024008
:1017B00000127A0000093D00000000201000002007
:1017C00010B501460022002300204A11012A02D14F
:1017D000094C236806E0022A02D1074C236A01E083
:1017E000054C636A01F01F02012494401C400CB1B7
:1017F000012000E0002010BD0010024000210B4A33
:1018000011700A4A203A82F82010012802D00428D8
:1018100008D103E00121054A117004E00521034AC3
:10182000117000E000BF00BF7047000020100240B0
:1018300001490860704700003C0442420249096ABD
:101840000143014A116270470010024010B50220A6
:1018500000F042F848B10B480078401C0949087074
:10186000012009490870FFF713FC022000F00EF870
:1018700000F080F84FF40030FFF762F800F07AF8DB
:1018800010BD00002900002028000020024909881E
:101890008143014A118070470428004003480088B2
:1018A00040F0100001490880704700000428004003
:1018B000034800884FF6EF710840014908807047DF
:1018C00004280040002103480188001F008841EAE5
:1018D000004070471C28004001460020064A12883C
:1018E0000A40D0B2044A121F12880A4012B108B14D
:1018F000012000E0002070470428004029B1064A7A
:1019000012880243044B1A8004E0034A128882437F
:10191000014B1A80704700000028004000B50246C5
:10192000FFF7BCFF100C03490880091D0A80FFF770
:10193000BFFF00BD2028004000B50246FFF7AEFF04
:10194000100C03490880091D0A80FFF7B1FF00BD94
:101950001828004000B50246FFF7A0FFC2F303407D
:1019600003490880091D0A80FFF7A2FF00BD00009F
:101970000828004000BF0348008800F0200000282D
:10198000F9D0704704280040074800884FF6F771E7
:1019900008400549088000BF0348008800F008009F
:1019A0000028F9D07047000004280040704700006C
:1019B00000B587B001218803FFF788FE01210420CC
:1019C000FFF784FE18208DF81B004FF40070ADF86F
:1019D000180003208DF81A0006A92148FFF734F8F3
:1019E00048208DF81B004FF48060ADF818000320EC
:1019F0008DF81A0006A91A48FFF726F84FF416507A
:101A000002900020ADF814000C20ADF81200002068
:101A1000ADF81000ADF80E00ADF80C0002A91148A9
:101A200000F046FB012240F225510E4800F01BFB5E
:101A30004FF4A060FFF7BEFB25208DF804000120C5
:101A40008DF807008DF805008DF8060001A8FFF756
:101A500079FB0121034800F0D0FA07B000BD000077
:101A6000000801400038014010B5FFF7C3FD10BD6C
:101A70002DE9F04104460A49204600F0DDFF80468A
:101A8000084901F003F90746074900F067FF0646D9
:101A900001F094F885B22846FFF7F8FDBDE8F08123
:101AA000000034430000FA440000FA43F8B504464D
:101AB0000D460126052740480078012803D03E48FE
:101AC0000078052807D113223C4801783A4800786D
:101AD000FFF702FC06E01222384801783648007809
:101AE000FFF7FAFB082201213046FFF7F5FB0B2236
:101AF00011213046FFF7F0FB08233A22212130461E
:101B0000FFF71AFC08200090E288022329213046C2
:101B1000FFF710FD08233A2239213046FFF70CFC6D
:101B2000082000902289022341213046FFF702FD60
:101B300008233A2251213046FFF7FEFB082000908F
:101B40006289022359213046FFF7F4FC0B22012160
:101B50003846FFF7C1FB0C2211213846FFF7BCFBCA
:101B600008233A2221213846FFF7E6FB082000909F
:101B70002A78022329213846FFF7DCFC08233A2281
:101B800039213846FFF7D8FB082000906A780223F5
:101B900041213846FFF7CEFC08233A22512138462E
:101BA000FFF7CAFB08200090AA7802235921384683
:101BB000FFF7C0FCF8BD00002A0000202B00002029
:101BC00010B500F001F810BD0CB500200190009098
:101BD0003348006840F480303149086000BF304825
:101BE000006800F4003000900198401C01900098BB
:101BF00018B90198B0F5A06FF1D12948006800F438
:101C0000003010B10120009001E000200090009809
:101C1000012843D12348006840F0100021490860A2
:101C20000846006820F0030008600846006840F09D
:101C3000020008601A484068194948600846406830
:101C400048600846406840F4806048600846406844
:101C500020F47C1048600846406840F4E810486072
:101C60000846006840F08070086000BF0C480068BB
:101C700000F000700028F9D00948406820F0030007
:101C8000074948600846406840F00200486000BFCD
:101C90000348406800F00C000828F9D10CBD000092
:101CA000001002400020024008B501210820FFF783
:101CB0000DFD14208DF8030003208DF802004FF471
:101CC0008070ADF8000069460A48FEF7BDFE4FF48B
:101CD0000070ADF8000069460648FEF7B5FE012227
:101CE00011020448FEF748FF012251020148FEF7A5
:101CF00043FF08BD000C014010B5012251020A4803
:101D0000FEF73AFF012211020748FEF735FF0022D5
:101D10004FF400710448FEF72FFF00224FF480714A
:101D20000148FEF729FF10BD000C014010B500224C
:101D30004FF400710648FEF71FFF0122110204480C
:101D4000FEF71AFF012251020148FEF715FF10BDF0
:101D5000000C01407047000010B51348006840F0C7
:101D600001001149086008464068104908400E49C2
:101D70004860084600680E4908400B49086008465C
:101D8000006820F4802008600846406820F4FE00C7
:101D900048604FF41F008860FFF712FF4FF00060AB
:101DA0000449086010BD0000001002400000FFF868
:101DB000FFFFF6FE08ED00E021B1028842F00102CB
:101DC000028004E002884FF6FE731A4002807047DA
:101DD00001894FF6F87211400181704770B50024F7
:101DE00000220023058C4FF6EF7635400584028CE7
:101DF0008388048B48F6FF752C404FF6FF452C4036
:101E00000D884FF6FF7606EA05252C434FF6DF7561
:101E10002A400D8906EA05152A434D8806EA05156C
:101E20002A43154DA84202D0144DA8421DD14FF6A9
:101E30007F752A404D894FF6FF7606EA05152A433D
:101E40004FF6BF752A408D8806EA05152A434FF6DE
:101E5000FF352B404FF2FF752B408D8906EA850533
:101E60002B43CD8906EA85052B4383800483CD88E7
:101E70000587028470BD0000002C01400034014041
:101E80000021018041808180C18001814181818167
:101E9000C181704701877047002202881D4B98421C
:101EA0000ED01D4B98420BD0B0F1804F08D01B4B89
:101EB000984205D01A4B984202D01A4B984204D14E
:101EC0004FF68F731A404B881A43174B984207D02E
:101ED000164B984204D04FF6FF431A40CB881A4362
:101EE00002808B8883850B8803850A4B98420BD030
:101EF000094B984208D00E4B984205D00D4B9842A2
:101F000002D00D4B984201D10B7A038601238382C4
:101F100070470000002C01400034014000040040E4
:101F200000080040000C0040001000400014004079
:101F300000400140004401400048014010B540F21B
:101F40002551214800F065F801283CD11E4800F0D9
:101F50001BF9C4B21D48007858B9402C2DD11C483B
:101F6000007850BB012019490870002019490870F9
:101F700023E01648007801280FD10D2C03D1022050
:101F80001249087019E0144812490978445411485C
:101F90000078401C0F4908700FE00C4800780228B8
:101FA0000BD10A2C09D10020084908700A49094AB6
:101FB0001278885401200649087040F225510248E1
:101FC00000F00CF800BF10BD0038014016000020E2
:101FD00015000020170000203800002010B5002256
:101FE000002340F66A14A14200D100BF0A12012466
:101FF0009440A3B2DC43048010BD21B1828942F435
:102000000052828104E082894DF6FF731A4082817A
:10201000704770B50246002400230025002040F6DA
:102020006A16B14200D100BFC1F3421501F01F038F
:10203000012606FA03F3012D02D19689334006E00A
:10204000022D02D1168A334001E0968A33400C12E9
:10205000012606FA04F41688344013B10CB10120AD
:1020600000E0002070BDF0B50346002400260025E6
:10207000002040F66A17B94200D100BF1846C1F3EC
:10208000421401F01F06012707FA06F5012C01D1C1
:102090000C3004E0022C01D1103000E014301AB1F1
:1020A00007682F43076002E00768AF430760F0BD91
:1020B0002DE9F04786B005460E460024A24600BF33
:1020C000A1460027B08900B100BF2F462C8A4CF6EC
:1020D000FF700440F08804432C82AC894EF6F31064
:1020E0000440B08831890843718908430443AC81B6
:1020F000AC8A4FF6FF400440B0890443AC8201A88B
:10210000FFF7F4FA1F48874202D1DDF810A001E082
:10211000DDF80CA0A88900F4004040B10AEBCA0029
:1021200000EB0A1031684900B0FBF1F807E00AEB58
:10213000CA0000EB0A1031688900B0FBF1F8642096
:10214000B8FBF0F004012009642101FB1089A88983
:1021500000F4004040B1322000EBC900B0FBF1F0C8
:1021600000F00700044308E0322000EB091064216E
:10217000B0FBF1F000F00F0004432C8106B0BDE885
:10218000F08700000038014001468888C0F308004D
:10219000704700BFFEE7000008B5FFF709FCFFF736
:1021A00028F8FEF71BFDFEF7FDF9FEF7EBFEFFF743
:1021B0005BFC0020FFF75CFCFEF76AFF76E2FD485F
:1021C000007800B300210220FFF798FBFA4800785E
:1021D0000090FA480378FA480278FA49F5480078FE
:1021E000FEF76AFDF848FFF743FC0220FEF7E5FA28
:1021F0000020FFF73DFC0120FEF7DFFA0020ED494B
:102200000870FEF745FF0221F048FEF7A8FC38B938
:102210000120EB49087000210220FFF76FFB0AE064
:10222000E748007820B1FEF733FF0020E849087046
:102230000020E3490870E7480078092877D2DFE8F2
:1022400000F076FEFD7652058576B500FEF7BCFF00
:10225000E1480078D0B900210220FFF74FFBFEF7DC
:10226000F1FEDE490860D748DD4908600120DD49FC
:1022700008707020DC490870D9480168D7480068A8
:10228000FFF714FC0120D449087028E0D348006807
:10229000FEF738FF002500240EE0D1480068005DFD
:1022A000C84908550A46115D05F10800FEF76AF9AC
:1022B000601CC4B2281DC5B2022CEEDDFEF7E8FE9C
:1022C000BD4800780090BD480378BD480278BD49FC
:1022D000B8480078FEF7F0FC0020BF4908700020E5
:1022E000BC490870E1E1BC480078F8B1FEF76CFF2A
:1022F000BC480078012806D10320BA49087059204B
:10230000B94908701EE0B7480078032803D0B548E3
:10231000007807280CD1B44800781838B249087002
:102320000846007829280DDC292008700AE0A5E17C
:10233000AC480078052805D10720AA490870592023
:10234000A94908700020A3490870AEE1A2480078AE
:1023500040B3FEF739FFA348007803280FD1A24805
:1023600000781830A049087008460078612819DD07
:1023700001209C49087070209B49087012E0994820
:10238000007807280ED198480078183096490870D0
:1023900008460078612805DD052092490870702004
:1023A0009149087000208B4908707EE18A480078C6
:1023B000002808D0FEF708FF8B480078702803D16A
:1023C00001208849087089E086480078032842D1B6
:1023D00085480078592810D18048006840893B28FA
:1023E00007DA7E4800684089401C7C4909684881BA
:1023F00003E000207949096848817B48007841283A
:1024000010D17648006800893B2807DA73480068D5
:102410000089401C71490968088103E000206F4968
:102420000968088170480078292857D16B480068EE
:10243000C08817280ADA6948006801E052E007E11D
:10244000C088401C65490968C88047E0002063498E
:102450000968C88042E06348007807283ED1624896
:102460000078592810D15E48006880783B2807DA48
:102470005B4800688078401C59490968887003E00F
:10248000002057490968887057480078412810D1C2
:102490005348006840783B2807DA51480068407884
:1024A000401C4F490968487003E000204C49096806
:1024B00048704D480078292810D1494800680078B4
:1024C000172807DA464800680078401C4449096824
:1024D000087003E0002042490968087000203D4967
:1024E0000870E2E03C480078002808D0FEF76CFE57
:1024F0003D480078702803D105203A490870A3E0D0
:102500003848007803283FD137480078592810D13F
:10251000324800684089002807DD3048006840895B
:10252000401E2E490968488103E03B202B49096879
:1025300048812D480078412810D12848006800893A
:10254000002807DD254800680089401E23490968E6
:10255000088103E03B20214909680881224800786E
:10256000292871D11D480068C088002807DD1B4854
:102570000068C088401E19490968C88064E01720B7
:1025800016490968C8805FE01648007807285BD1C3
:102590001548007859282DD1114800688078002806
:1025A00024DD0F4800688078401E0D490968887056
:1025B00020E00000280000201B0000201A0000205E
:1025C000190000202000002000003443000C0140CE
:1025D0002900002014000020180000201C0000200A
:1025E000240000202A0000202B0000203B2030493E
:1025F000096888702F480078412810D12C4800685D
:102600004078002807DD2A4800684078401E2849A5
:102610000968487003E03B2025490968487025484F
:102620000078292810D1224800680078002807DDAA
:102630001F4800680078401E1D490968087003E0C3
:1026400017201B490968087000201B4908702CE0FE
:10265000FEF7BAFDFEF71CFD1848007800901848F8
:10266000037818480278184918480078FEF724FBC8
:102670000020174908701049087016E014480078C7
:1026800060B90E48007800900D4803780D48027834
:102690000D490E480078FEF70FFB05E0044801687D
:1026A0000C480068FFF702FA00BF00BF87E5000092
:1026B000240000202B000020140000201B0000201C
:1026C0001A0000201900002020000020280000200F
:1026D000180000201C00002021F00042A2F16052EE
:1026E000B2F5801F01F0004328BFD2F17F6C0BD9F7
:1026F0005FEA001C43EAC20242EB507018BF704709
:1027000028BF20F001007047B2F5801FBCBF1846FB
:1027100070474FEA410C1CF5001F02D2084600F03A
:102720007CBB70B500F0C6F800000089FFF7F6BF6B
:102730004FF00040A0F580007047B0FA80F310FA27
:1027400003F10AD0C3F11D0303F580634FEA415042
:102750004FEA035202EBD12170474FF0000070475F
:10276000DFF848C170B51CEA111E1EBF1CEA131524
:102770009EEA0C0F95EA0C0F00F06F8081EA0304CB
:1027800023EA4C134EEAD47E21EA4C1141F4801125
:1027900043F48013AE44A1FB024CA0FB0365AEF1F1
:1027A0007F7E361955EB0C05A1FB034C4CF1000361
:1027B000A0FB021C16EB0C06654153F10003094215
:1027C00018BF46F0010613F4007F0BD14FEA033126
:1027D0004FEA0530340341EA155140EA16506FF0D4
:1027E00003020AE04FEAC3214FEAC520F40241EA9E
:1027F000555140EA56506FF0020202EB2E4201EBB7
:10280000025585EACE710AD05FEA440C18BF24F065
:10281000004450F1000041F1000120EAD47040F280
:10282000FE7C624500D270BDA84214BF4FF08044C8
:102830004FF04044002E08BF0024BEF1806FA8BFB7
:10284000A1F1C041BDE8704080F282804FF00000ED
:1028500001F1C04101F0004170479EEA0C0F0CEA03
:10286000131518BF95EA0C0F06D04FF0000081EA4F
:10287000030E0EF0004170BD00F01CF88900013E0F
:1028800000F007B800F009B84FEA430C5FEA5C5C5F
:1028900008D081EA030100F05BB84FEA410C5FEA1F
:1028A0005C5CF6D14FF00000014970470000FF0763
:1028B0000000F87F0EF1020E2EF0030E5EF8046B9E
:1028C000364205D4012A43EB030515F5001F12D843
:1028D000012841EB010C1CF5001F0CD80ED14FEA6A
:1028E000D17C15F5001F0CEB4C0C0CF1020C08BF51
:1028F0004CEBD37C04E04FF0080C01E04FEAD37CB2
:102900000CEB4C0526FA05F606F00706B6F1040CAA
:1029100006D20EEB860CBDE870404CF0010C60470F
:10292000DFE80CF0090B02024FF000414FF000000D
:10293000A1F5002170BD19461046012851EB010494
:1029400018BFD4F5001484BF002001F0004170BD11
:102950000808A0F500114FEA3101704790EA010F15
:1029600048BF81F0004100F1A082421A3CBF801AAA
:1029700089184FEAD0524FF07F4C1CEA410FA2EB6E
:10298000D15318BF9CEA026F00F03B804FF0004C1F
:102990004CEA00204CEA012121FA03FC10EB0C0C5C
:1029A0001ED202F1FF325FEA1C2040EBC25038BF5A
:1029B00070471CF07F0F4FEA400C18BFBCF17F4FEF
:1029C00038BF7047C3F12003994008BF20F00100D1
:1029D000BCF17F4F38BF7047A0F1C04000F01DBA76
:1029E0004FEA3C00000A40EBC25028BF1CF0FF0F2A
:1029F0004FEA400CE6D018BFBCF17F4F38BF70479C
:102A0000EAE79CEA026F05D010EA5C0F08BF00F00D
:102A10000040704710B500F0BAF900BF64FBBE3E3D
:102A2000401058BFC0F14040491058BFC1F140416B
:102A30008142EFF3008070474FF47F0C1CEAD01204
:102A40001EBF1CEAD11392EA0C0F93EA0C0F00F0A0
:102A5000858090EA010F48BF42F4807240F4000C78
:102A600041F400002CF07F4120F07F4000B581420E
:102A7000A2EB03020FF2081CACEB504EC0F10000B9
:102A80009EF800E04FEA4E0E00FB0EFC38BF4900F6
:102A90004FEA2C1C02F5FA020CFB0EF34FEACE1E95
:102AA0004FEA112C4FEAC1210EEB635E42EB22424A
:102AB0000EFB0CFC4FEA1C5300FB03114FEA112CD8
:102AC0004FEA01310EFB0CFC4FEADC4C00FB0C1111
:102AD000C14228BF09184CEB03335DF804EB10EB3F
:102AE000410143EBC250B2F57C0F38BF704729D586
:102AF00012F0F00F1CBF00F1C04000F00040704722
:102B0000008182838485868788898B8C8D8E8F91C6
:102B10009293959697999A9C9D9FA0A2A3A5A7A8EA
:102B2000AAACAEB0B2B3B5B7B9BCBEC0C2C5C7C916
:102B3000CCCED1D4D7D9DCDFE2E6E9ECF0F3F7FA7A
:102B4000FE0000004FEA400C0CF1807CBCF17E4F8F
:102B500028BF7047B0F1C04000F05FB990EA010FA4
:102B60000CEAD11348BF42F48072624538BF634516
:102B700007D213F47F0F16D080EA010000F0004066
:102B8000704710B500F003F9097EFC3E00F005B86F
:102B900080EA010000F00040704780EA010000F088
:102BA000004000F03AB912F47F0F04BF02487047AA
:102BB00080EA010000F031B90000C07FC10DD1F101
:102BC0009E0206DB4FEA002343F0004323FA02F0A3
:102BD0007047004207D54FEA4001B1F1FE4F02D2E3
:102BE0004FF00000704710B500F0D1F849922480F2
:102BF000002070476FEA200070470000B0FA80F3B1
:102C000010FA03F2C3F19D030AD0D90501EB12209B
:102C1000530638BF704700F1010008BF20F00100E3
:102C20007047000050EA010C00F113801CF5000F02
:102C300058BFBCF5000F01D48842704707D710F584
:102C4000000F58BF11F5000F15D488427047894214
:102C500070471CF5000F04D5BCF5000FF7D5814275
:102C600070474FF0807C1CEB400F38BF1CEB410FCE
:102C700001D28142704710B500F089F892244900D2
:102C80004FF000504FF08051FFF7CABE4FF47F0C59
:102C90001CEAD0121EBF1CEAD11392EA0C0F93EA71
:102CA0000C0F00F0478090EA010F48BF42F4807299
:102CB0004FF0004C4CEA00204CEA012102EB0302E9
:102CC000A0FB0113A2F50002002918BF43F0010385
:102CD0005B0028BF4FEA330342EB22425FEA132C2A
:102CE0004CEBC2502EBFBCEB436FB2F57C0F70476C
:102CF0004FEA036CBCF1004F08BF20F00100B2F5B1
:102D00007C0F38BF70470BD582F0FF0212F5803F71
:102D1000C8BF704700F1C040D8BF00F00040704706
:102D200000F5000C5FEA4C0C48BF7047B0F1C040A2
:102D300000F073B890EA010F0CEAD11348BF42F4D7
:102D40008072624538BF634504D280EA010000F01A
:102D50000040704710B500F01AF800BF8900013E2E
:102D600000F007B800F009B85FEA410C5FEA1C6C9C
:102D700008D080EA010000F050B85FEA400C5FEA3A
:102D80001C6CF6D14FF00040A0F5800070470EF1AA
:102D9000020E2EF0030E5EF8044B244204D44FEAD8
:102DA0004102B2F17F4F11D84FEA4003B3F17F4F98
:102DB0000CD80ED14FEAD07CB2F17F4F0CEB4C0C0B
:102DC0000CF1020C08BF4CEBD17C04E04FF0080C76
:102DD00001E04FEAD17C0CEB4C0324FA03F404F03D
:102DE0000704B4F1040C06D20EEB840CBDE81040CD
:102DF0004CF0010C6047DFE80CF0070802024FF0CE
:102E00000040A0F5800010BD0846420018BFD2F176
:102E1000807288BF00F0004010BDFF2141EAD05011
:102E2000C005704751EA000C00F113801CF5000F3B
:102E300058BFBCF5000F01D48142704707D711F588
:102E4000000F58BF10F5000F15D48142704789421A
:102E500070471CF5000F04D5BCF5000FF7D588426C
:102E600070474FF0807C1CEB410F38BF1CEB400FCC
:102E700001D28842704780EA010081EA000180EABD
:102E80000100FFF7F8BE80F0004090EA010F7FF5E7
:102E90006CAD81F0004100F008B8000090EA010F2D
:102EA00048BF81F000413FF560AD421A04D882F07E
:102EB0000042A0EB020011444FEAD0524FF07F4C89
:102EC0001CEA410FA2EBD15318BF9CEA026F4AD013
:102ED0004FF0004C4CEA00204CEA012121FA03FC9F
:102EE000B0EB0C0C0FD412F0FE0F36D05FEA4C00A2
:102EF0001DD5001240EBC25038BF70471CF03F0F89
:102F000018BF70470BE0A2F101025FEA1C2040EB02
:102F1000C25038BF70471CF07F0F18BF7047C3F115
:102F20002003994014BF401E20F001007047800824
:102F30004FEA122308BF7047B0FA80FCA2EB0C02E4
:102F4000CCF1280C60FA0CF093EA122F04BF00EBCE
:102F5000C25070474FEAC3707047130A5FEADC1033
:102F600008BF7047F6E79CEA026F04D010EA5C0FD6
:102F700008BF0020704710B5FFF709FF40DFF63E9D
:102F800081F0004070470000E807010001000000E8
:102F9000000000000000000000000000002F000002
:102FA00000000700070000147F147F1400242A7F0C
:102FB0002A1200626408132300364955225000008B
:102FC0000503000000001C224100000041221C00FB
:102FD0000014083E08140008083E0808000000A07D
:102FE0006000000808080808000060600000002079
:102FF00010080402003E5149453E0000427F400057
:10300000004261514946002141454B3100181412DC
:103010007F10002745454539003C4A4949300001A9
:103020007109050300364949493600064949291EF8
:10303000000036360000000056360000000814225A
:10304000410000141414141400004122140800025A
:103050000151090600324959513E007C1211127C7F
:10306000007F49494936003E41414122007F4141AC
:10307000221C007F49494941007F09090901003E9E
:103080004149497A007F0808087F0000417F4100DC
:10309000002040413F01007F08142241007F404052
:1030A0004040007F020C027F007F0408107F003E3A
:1030B0004141413E007F09090906003E4151215E20
:1030C000007F091929460046494949310001017F1D
:1030D0000101003F4040403F001F2040201F003FB3
:1030E0004038403F00631408146300070870080765
:1030F00000615149454300007F41410000552A5578
:103100002A55000041417F000004020102040040F2
:103110004040404000000102040000205454547814
:10312000007F484444380038444444200038444434
:10313000487F00385454541800087E0901020018D2
:10314000A4A4A47C007F080404780000447D40000F
:10315000004080847D00007F102844000000417FF3
:103160004000007C04180478007C080404780038CF
:103170004444443800FC242424180018242418FC57
:10318000007C0804040800485454542000043F44C0
:103190004020003C4040207C001C2040201C003C83
:1031A0004030403C004428102844001CA0A0A07CD3
:1031B000004464544C44141414141414000000000B
:1031C000000000000000000000000000000000F807
:1031D00000000000000000333000000000100C066A
:1031E000100C0600000000000000000040C0784005
:1031F000C0784000043F04043F040400007088FCD1
:1032000008300000001820FF211E0000F008F00028
:10321000E018000000211C031E211E0000F0088899
:10322000700000001E2123241927211010160E0003
:10323000000000000000000000000000000000E0AE
:1032400018040200000000071820400000020418C3
:10325000E00000000040201807000000404080F01F
:10326000804040000202010F01020200000000F055
:10327000000000000101011F010101000000000029
:103280000000000080B0700000000000000000009E
:103290000000000000010101010101010000000027
:1032A00000000000003030000000000000000000BE
:1032B00080601804006018060100000000E010089B
:1032C0008870E000000F182621100F000000101079
:1032D000F8000000000020203F20200000700808B7
:1032E0000808F000003028242221300000300808AF
:1032F000088870000018202121221C000000804056
:1033000030F8000000060524243F242400F88888B3
:10331000880808000019202020110E0000E0108805
:1033200088900000000F112020201F0000180808BE
:10333000886818000000003E010000000070880846
:1033400008887000001C222121221C0000F00808BF
:103350000810E0000001122222110F00000000C03E
:10336000C0000000000000303000000000000080BD
:1033700000000000000080600000000000008040AD
:1033800020100800000102040810200040404040C6
:103390004040400004040404040404000008102019
:1033A000408000000020100804020100007048085E
:1033B0000808F0000000003036010000C030C828C6
:1033C000E810E0000718272423140B000000C03881
:1033D000E0000000203C23020227382008F88888FB
:1033E00088700000203F202020110E00C030080807
:1033F00008083800071820202010080008F80808DE
:103400000810E000203F202020100F0008F88888D6
:10341000E8081000203F20202320180008F88888A2
:10342000E8081000203F200003000000C03008081A
:103430000838000007182020221E020008F80800A3
:103440000008F808203F210101213F20000808F86A
:10345000080800000020203F20200000000008088D
:10346000F8080800C08080807F00000008F888C04D
:1034700028180800203F20012638200008F80800FE
:1034800000000000203F20202020300008F8F80035
:10349000F8F80800203F003F003F200008F830C047
:1034A0000008F808203F200007183F00E010080837
:1034B0000810E0000F10202020100F0008F8080866
:1034C0000808F000203F210101010000E010080879
:1034D0000810E0000F18242438504F0008F888889E
:1034E00088887000203F2000030C3020007088087E
:1034F000080838000038202121221C00180808F88C
:10350000080818000000203F2000000008F808000C
:103510000008F808001F202020201F0008788800DD
:1035200000C83808000007380E010000F80800F84D
:103530000008F800033C0700073C030008186880F7
:103540008068180820302C03032C30200838C8006D
:10355000C83808000000203F2000000010080808BC
:10356000C83808002038262120201800000000FE5E
:10357000020202000000007F40404000000C30C00A
:1035800000000000000000010638C0000002020236
:10359000FE000000004040407F00000000000402E8
:1035A0000202040000000000000000000000000013
:1035B0000000000080808080808080800002020403
:1035C00000000000000000000000000000008080FB
:1035D000808000000019242222223F2008F8008069
:1035E00080000000003F112020110E00000000802C
:1035F00080800000000E11202020110000000080BB
:103600008088F800000E112020103F2000008080EC
:1036100080800000001F222222221300008080F000
:10362000888888180020203F20200000000080802B
:1036300080808000006B94949493600008F8008070
:1036400080800000203F210000203F2000809898CB
:10365000000000000020203F20200000000000802B
:103660009898000000C08080807F000008F800006B
:1036700080808000203F24022D302000000808F8C0
:10368000000000000020203F20200000808080807B
:1036900080808000203F20003F20003F808000800D
:1036A00080800000203F210000203F20000080801B
:1036B00080800000001F202020201F0080800080CC
:1036C0008000000080FFA12020110E00000000807B
:1036D00080808000000E112020A0FF80808080006C
:1036E0008080800020203F21200001000000808099
:1036F000808080000033242424241900008080E08E
:10370000808000000000001F20200000808000005A
:1037100000808000001F202020103F20808080003B
:103720000080808000010E3008060100808000804B
:10373000008080800F300C030C300F000080800070
:10374000808080000020312E0E312000808080009B
:103750000080808080818E7018060100008080804B
:10376000808080000021302C2221300000000000E9
:10377000807C020200000000003F4040000000008A
:10378000FF00000000000000FF0000000002027CBB
:10379000800000000040403F0000000000060101E2
:1037A0000202040400000000000000001060028C0F
:1037B0000000FE9292929292FE00000004047E01AC
:1037C000407E42427E427E42427E40000000FC2417
:1037D0002424FC252624FC242424040040308F804B
:1037E000844C55252525554C80808000060909E626
:1037F000F80C040202020202041E0000000000078E
:103800001F3020404040404020100000008060F801
:1038100007404848E85F484848404000010000FF32
:103820000000020B1222D20A060000000000FC0475
:10383000D4545454D4047F84C536040088660100EF
:1038400063828292AB8482C10224CF0080809E92E8
:1038500092929EE0809EB2D2929E80000808F494DC
:103860009292F10001F2929494F8080000FC202456
:10387000A8FFA82400FC4444C4424000003F222189
:10388000202F20A3601F0000FF00000080828282A2
:10389000FE8282828282FE828282800000804030AC
:1038A0000F0000000000FF000000000000FC848406
:1038B00084FC001010101010FF101000003F1010BA
:1038C000103F0000010640807F000000101010FF34
:1038D000109040A09E8282829EA020000444827F9D
:1038E00001008080432C1028448380004030CF08A2
:1038F000281802FE22222222FE02020000007F205F
:103900001000101F11111109FF08080000F801062E
:1039100000F0121212F2020202FE000000FF00008C
:10392000001F1111111F0040807F000000FE225A6D
:103930008600027A4A4A4A4A4A7A020000FF04088C
:103940000700FF090B0D790D4B897F00402010887F
:1039500048442424242444488810204000000100C6
:1039600004020231310202040001000040201088EC
:10397000484424A4E4E474789C1E26400060713816
:103980001C0E07333102020400010000404458C0FD
:10399000FF504C0022CC0000FF0000001008060180
:1039A000FF01060004040404FF02020000020202F8
:1039B000028242F20E428202020200001008040259
:1039C000010000FF00000001020C00000000007E6A
:1039D000424242C24242427E000000008040300E1D
:1039E0001020407F44444444444040000000000014
:1039F000806018070718608000000000002038264B
:103A000021202020202020212638200000000080B6
:103A1000804040202010100808FC00000001010236
:103A20000204040808101020207F0000000202C2D7
:103A3000020202FE82828282820200004040407FB7
:103A40004040407F4040404040404000080888C817
:103A5000380C0B0808E8080808080800020100FFF5
:103A600040414141417F414141414000404042CCC1
:103A70000040404040FF4040404040000000007F88
:103A80002010000000FF00000000000000020C8079
:103A9000608040300FC808082818000002027E012C
:103AA0008040201806010618204080001F1D1F1EA0
:103AB0001F1E1F1F1E1F1E1FD83A000800000020D7
:103AC0002C00000028010008043B00082C00002006
:103AD000FC0600004401000800000000010203048D
:103AE000010203040607080902040608000000009A
:103AF00000000000000000000000000000000000C6
:043B000000000000C1
:04000005080000ED02
:00000001FF
